{"contracts/BlackHatCat.sol":{"BLACKHATCAT":{"abi":[{"inputs":[],"stateMutability":"nonpayable","type":"constructor"},{"anonymous":false,"inputs":[{"indexed":true,"internalType":"address","name":"owner","type":"address"},{"indexed":true,"internalType":"address","name":"spender","type":"address"},{"indexed":false,"internalType":"uint256","name":"value","type":"uint256"}],"name":"Approval","type":"event"},{"anonymous":false,"inputs":[{"indexed":true,"internalType":"address","name":"tokenOwner","type":"address"},{"indexed":true,"internalType":"address","name":"spender","type":"address"},{"indexed":false,"internalType":"uint256","name":"amount","type":"uint256"}],"name":"ApprovedAmount","type":"event"},{"anonymous":false,"inputs":[{"indexed":true,"internalType":"address","name":"burner","type":"address"},{"indexed":false,"internalType":"uint256","name":"amount","type":"uint256"}],"name":"Burn","type":"event"},{"anonymous":false,"inputs":[{"indexed":false,"internalType":"uint256","name":"feeAmount","type":"uint256"},{"indexed":false,"internalType":"uint256","name":"amountAfterFee","type":"uint256"}],"name":"FeeDetails","type":"event"},{"anonymous":false,"inputs":[{"indexed":false,"internalType":"uint256","name":"sellFee","type":"uint256"},{"indexed":false,"internalType":"uint256","name":"buyFee","type":"uint256"}],"name":"FeesUpdated","type":"event"},{"anonymous":false,"inputs":[{"indexed":true,"internalType":"address","name":"newMarketingReceiver","type":"address"}],"name":"MarketingReceiverUpdated","type":"event"},{"anonymous":false,"inputs":[{"indexed":true,"internalType":"address","name":"previousOwner","type":"address"},{"indexed":true,"internalType":"address","name":"newOwner","type":"address"}],"name":"OwnershipTransferred","type":"event"},{"anonymous":false,"inputs":[{"indexed":true,"internalType":"address","name":"newRouter","type":"address"},{"indexed":true,"internalType":"address","name":"newRouterInterface","type":"address"},{"indexed":true,"internalType":"address","name":"newPair","type":"address"}],"name":"RouterUpdated","type":"event"},{"anonymous":false,"inputs":[{"indexed":true,"internalType":"address","name":"pair","type":"address"},{"indexed":true,"internalType":"bool","name":"value","type":"bool"}],"name":"SetAutomatedMarketMakerPair","type":"event"},{"anonymous":false,"inputs":[{"indexed":true,"internalType":"address","name":"from","type":"address"},{"indexed":true,"internalType":"address","name":"to","type":"address"},{"indexed":false,"internalType":"uint256","name":"value","type":"uint256"}],"name":"Transfer","type":"event"},{"anonymous":false,"inputs":[{"indexed":true,"internalType":"address","name":"from","type":"address"},{"indexed":true,"internalType":"address","name":"to","type":"address"},{"indexed":false,"internalType":"uint256","name":"value","type":"uint256"}],"name":"TransferConfirmed","type":"event"},{"anonymous":false,"inputs":[{"indexed":true,"internalType":"address","name":"sender","type":"address"},{"indexed":true,"internalType":"address","name":"recipient","type":"address"},{"indexed":false,"internalType":"uint256","name":"amount","type":"uint256"}],"name":"TransferDetails","type":"event"},{"anonymous":false,"inputs":[{"indexed":true,"internalType":"address","name":"sender","type":"address"},{"indexed":false,"internalType":"uint256","name":"ethAmount","type":"uint256"},{"indexed":false,"internalType":"uint256","name":"tokenAmount","type":"uint256"}],"name":"WithdrawAll","type":"event"},{"anonymous":false,"inputs":[{"indexed":true,"internalType":"address","name":"sender","type":"address"},{"indexed":false,"internalType":"uint256","name":"amountWithdrawn","type":"uint256"},{"indexed":false,"internalType":"uint256","name":"remainingContractBalance","type":"uint256"}],"name":"WithdrawETHToMarketing","type":"event"},{"inputs":[],"name":"BLAST","outputs":[{"internalType":"contract IBlast","name":"","type":"address"}],"stateMutability":"view","type":"function"},{"inputs":[],"name":"MAX_OWNERSHIP","outputs":[{"internalType":"uint256","name":"","type":"uint256"}],"stateMutability":"view","type":"function"},{"inputs":[{"internalType":"address","name":"owner","type":"address"},{"internalType":"address","name":"spender","type":"address"}],"name":"allowance","outputs":[{"internalType":"uint256","name":"","type":"uint256"}],"stateMutability":"view","type":"function"},{"inputs":[{"internalType":"address","name":"spender","type":"address"},{"internalType":"uint256","name":"amount","type":"uint256"}],"name":"approve","outputs":[{"internalType":"bool","name":"","type":"bool"}],"stateMutability":"nonpayable","type":"function"},{"inputs":[{"internalType":"address","name":"","type":"address"}],"name":"automatedMarketMakerPairs","outputs":[{"internalType":"bool","name":"","type":"bool"}],"stateMutability":"view","type":"function"},{"inputs":[{"internalType":"address","name":"account","type":"address"}],"name":"balanceOf","outputs":[{"internalType":"uint256","name":"","type":"uint256"}],"stateMutability":"view","type":"function"},{"inputs":[{"internalType":"uint256","name":"amount","type":"uint256"}],"name":"burn","outputs":[],"stateMutability":"nonpayable","type":"function"},{"inputs":[],"name":"buyFee","outputs":[{"internalType":"uint256","name":"","type":"uint256"}],"stateMutability":"view","type":"function"},{"inputs":[],"name":"cancelBLACKHATCATWithdrawal","outputs":[],"stateMutability":"nonpayable","type":"function"},{"inputs":[],"name":"cancelETHWithdrawal","outputs":[],"stateMutability":"nonpayable","type":"function"},{"inputs":[],"name":"claimMyContractsGas","outputs":[],"stateMutability":"nonpayable","type":"function"},{"inputs":[],"name":"dead","outputs":[{"internalType":"address","name":"","type":"address"}],"stateMutability":"view","type":"function"},{"inputs":[],"name":"decimals","outputs":[{"internalType":"uint8","name":"","type":"uint8"}],"stateMutability":"pure","type":"function"},{"inputs":[{"internalType":"address","name":"spender","type":"address"},{"internalType":"uint256","name":"subtractedValue","type":"uint256"}],"name":"decreaseAllowance","outputs":[{"internalType":"bool","name":"","type":"bool"}],"stateMutability":"nonpayable","type":"function"},{"inputs":[],"name":"dyorSwapRouter","outputs":[{"internalType":"address","name":"","type":"address"}],"stateMutability":"view","type":"function"},{"inputs":[{"internalType":"address","name":"gov","type":"address"}],"name":"enableClaimable","outputs":[],"stateMutability":"nonpayable","type":"function"},{"inputs":[],"name":"getFees","outputs":[{"internalType":"uint256","name":"currentSellFee","type":"uint256"},{"internalType":"uint256","name":"currentBuyFee","type":"uint256"}],"stateMutability":"view","type":"function"},{"inputs":[],"name":"getMarketingReceiver","outputs":[{"internalType":"address","name":"","type":"address"}],"stateMutability":"view","type":"function"},{"inputs":[{"internalType":"address","name":"spender","type":"address"},{"internalType":"uint256","name":"addedValue","type":"uint256"}],"name":"increaseAllowance","outputs":[{"internalType":"bool","name":"","type":"bool"}],"stateMutability":"nonpayable","type":"function"},{"inputs":[],"name":"isBLACKHATCATWithdrawalPending","outputs":[{"internalType":"bool","name":"","type":"bool"}],"stateMutability":"view","type":"function"},{"inputs":[],"name":"isETHWithdrawalPending","outputs":[{"internalType":"bool","name":"","type":"bool"}],"stateMutability":"view","type":"function"},{"inputs":[{"internalType":"address","name":"","type":"address"}],"name":"isExcludedFromMaxOwnership","outputs":[{"internalType":"bool","name":"","type":"bool"}],"stateMutability":"view","type":"function"},{"inputs":[{"internalType":"address","name":"_address","type":"address"}],"name":"isExempt","outputs":[{"internalType":"bool","name":"","type":"bool"}],"stateMutability":"view","type":"function"},{"inputs":[{"internalType":"address","name":"","type":"address"}],"name":"isFeeExempt","outputs":[{"internalType":"bool","name":"","type":"bool"}],"stateMutability":"view","type":"function"},{"inputs":[],"name":"manualSwapTokensForETH","outputs":[],"stateMutability":"nonpayable","type":"function"},{"inputs":[],"name":"minEthBeforeTransfer","outputs":[{"internalType":"uint256","name":"","type":"uint256"}],"stateMutability":"view","type":"function"},{"inputs":[],"name":"name","outputs":[{"internalType":"string","name":"","type":"string"}],"stateMutability":"pure","type":"function"},{"inputs":[],"name":"owner","outputs":[{"internalType":"address","name":"","type":"address"}],"stateMutability":"view","type":"function"},{"inputs":[],"name":"pair","outputs":[{"internalType":"address","name":"","type":"address"}],"stateMutability":"view","type":"function"},{"inputs":[],"name":"renounceOwnership","outputs":[],"stateMutability":"nonpayable","type":"function"},{"inputs":[],"name":"router","outputs":[{"internalType":"contract IUniswapV2Router02","name":"","type":"address"}],"stateMutability":"view","type":"function"},{"inputs":[],"name":"routerCA","outputs":[{"internalType":"address","name":"","type":"address"}],"stateMutability":"view","type":"function"},{"inputs":[],"name":"sellFee","outputs":[{"internalType":"uint256","name":"","type":"uint256"}],"stateMutability":"view","type":"function"},{"inputs":[{"internalType":"address","name":"newPair","type":"address"},{"internalType":"bool","name":"value","type":"bool"}],"name":"setAutomatedMarketMakerPair","outputs":[],"stateMutability":"nonpayable","type":"function"},{"inputs":[{"internalType":"address","name":"_address","type":"address"},{"internalType":"bool","name":"_status","type":"bool"}],"name":"setExemptStatus","outputs":[],"stateMutability":"nonpayable","type":"function"},{"inputs":[{"internalType":"address payable","name":"newMarketingReceiver","type":"address"}],"name":"setMarketingReceiver","outputs":[],"stateMutability":"nonpayable","type":"function"},{"inputs":[{"internalType":"address","name":"newRouterAddress","type":"address"}],"name":"setRouter","outputs":[],"stateMutability":"nonpayable","type":"function"},{"inputs":[],"name":"symbol","outputs":[{"internalType":"string","name":"","type":"string"}],"stateMutability":"pure","type":"function"},{"inputs":[],"name":"thrusterRouter","outputs":[{"internalType":"address","name":"","type":"address"}],"stateMutability":"view","type":"function"},{"inputs":[],"name":"totalSupply","outputs":[{"internalType":"uint256","name":"","type":"uint256"}],"stateMutability":"view","type":"function"},{"inputs":[{"internalType":"address","name":"recipient","type":"address"},{"internalType":"uint256","name":"amount","type":"uint256"}],"name":"transfer","outputs":[{"internalType":"bool","name":"","type":"bool"}],"stateMutability":"nonpayable","type":"function"},{"inputs":[{"internalType":"address","name":"sender","type":"address"},{"internalType":"address","name":"recipient","type":"address"},{"internalType":"uint256","name":"amount","type":"uint256"}],"name":"transferFrom","outputs":[{"internalType":"bool","name":"","type":"bool"}],"stateMutability":"nonpayable","type":"function"},{"inputs":[{"internalType":"address","name":"newOwner","type":"address"}],"name":"transferOwnership","outputs":[],"stateMutability":"nonpayable","type":"function"},{"inputs":[],"name":"withdrawAllToOwner","outputs":[],"stateMutability":"nonpayable","type":"function"},{"inputs":[],"name":"withdrawBLACKHATCATToMarketing","outputs":[],"stateMutability":"nonpayable","type":"function"},{"inputs":[],"name":"withdrawETHToMarketing","outputs":[],"stateMutability":"nonpayable","type":"function"},{"stateMutability":"payable","type":"receive"}],"evm":{"bytecode":{"linkReferences":{},"object":"6080604052620000126012600a6200036d565b620000239064e8d4a5100062000384565b60025567016345785d8a000060035560646009556001600a819055600b55600d80546001600160a01b031990811661dead17909155600e805482167344889b52b71e60de6ed7de82e2939fcc52fb2b4e908117909155600f8054831690911781556010805490921673e470699f6d0384e3ea68f1144e41d22c6c8fdeef179091556011556013805461ffff60a01b19169055348015620000c1575f80fd5b50620000cd336200020f565b6001808055600c80546001600160a01b03191673eb7e46e3992ade01ac32959ebdd306efba811b8c178155305f90815260066020526040808220805460ff19908116861790915592546001600160a01b03908116835281832080548516861790553383528183208054851686179055600e5481168352818320805485168617905560135416825280822080549093169093179091558151634e606c4760e01b8152915173430000000000000000000000000000000000000292634e606c4792600480830193919282900301818387803b158015620001a9575f80fd5b505af1158015620001bc573d5f803e3d5ffd5b5050600254335f8181526004602090815260408083208590555193845291945092507fddf252ad1be2c89b69c2b068fc378daa952ba7f163c4a11628f55a4df523b3ef910160405180910390a36200039e565b5f80546001600160a01b038381166001600160a01b0319831681178455604051919092169283917f8be0079c531659141344cd1fd0a4f28419497f9722a3daafe3b4186f6b6457e09190a35050565b634e487b7160e01b5f52601160045260245ffd5b600181815b80851115620002b257815f19048211156200029657620002966200025e565b80851615620002a457918102915b93841c939080029062000277565b509250929050565b5f82620002ca5750600162000367565b81620002d857505f62000367565b8160018114620002f15760028114620002fc576200031c565b600191505062000367565b60ff8411156200031057620003106200025e565b50506001821b62000367565b5060208310610133831016604e8410600b841016171562000341575081810a62000367565b6200034d838362000272565b805f19048211156200036357620003636200025e565b0290505b92915050565b5f6200037d60ff841683620002ba565b9392505050565b80820281158282048414176200036757620003676200025e565b61235c80620003ac5f395ff3fe608060405260043610610278575f3560e01c8063834b39b71161014a578063b11ac997116100be578063c55d145511610078578063c55d14551461076b578063db8d55f11461077f578063dd62ed3e146107a6578063f2fde38b146107ea578063f5e7362014610809578063f887ea401461081d575f80fd5b8063b11ac997146106ab578063b62496f5146106bf578063bb3b3ead146106ed578063be4d0ae71461070d578063c0a5788c1461072c578063c0d786551461074c575f80fd5b8063988297a61161010f578063988297a6146105d95780639a7a23d6146105f8578063a457c2d714610617578063a8aa1b3114610636578063a9059cbb14610655578063ad5dff7314610674575f80fd5b8063834b39b7146105705780638da5cb5b14610584578063927818af146105a057806395d89b411461028357806397d75776146105bf575f80fd5b80633f4218e0116101ec5780635a7ba18f116101a65780635a7ba18f146104c957806370a08231146104e1578063715018a61461051557806375b625321461052957806377d5d2dc1461054857806380710f391461055c575f80fd5b80633f4218e01461040557806340257ac81461043357806342966c681461044857806347062402146104675780634fb945501461047c578063534c0906146104aa575f80fd5b80632161c7341161023d5780632161c7341461035957806323b872dd146103785780632b14ca5614610397578063313ce567146103ac57806336cf7c87146103c757806339509351146103e6575f80fd5b806306fdde0314610283578063095ea7b3146102c5578063127b7a63146102f4578063136f84d31461032557806318160ddd1461033b575f80fd5b3661027f57005b5f80fd5b34801561028e575f80fd5b50604080518082018252600b81526a10931050d2d2105510d05560aa1b602082015290516102bc9190611f5c565b60405180910390f35b3480156102d0575f80fd5b506102e46102df366004611fbb565b61083c565b60405190151581526020016102bc565b3480156102ff575f80fd5b50600c546001600160a01b03165b6040516001600160a01b0390911681526020016102bc565b348015610330575f80fd5b50610339610852565b005b348015610346575f80fd5b506002545b6040519081526020016102bc565b348015610364575f80fd5b50610339610373366004611fe5565b6108db565b348015610383575f80fd5b506102e4610392366004612020565b61090d565b3480156103a2575f80fd5b5061034b600a5481565b3480156103b7575f80fd5b50604051601281526020016102bc565b3480156103d2575f80fd5b50600d5461030d906001600160a01b031681565b3480156103f1575f80fd5b506102e4610400366004611fbb565b610923565b348015610410575f80fd5b506102e461041f36600461205e565b60066020525f908152604090205460ff1681565b34801561043e575f80fd5b5061034b60035481565b348015610453575f80fd5b50610339610462366004612079565b61095e565b348015610472575f80fd5b5061034b600b5481565b348015610487575f80fd5b506102e461049636600461205e565b60086020525f908152604090205460ff1681565b3480156104b5575f80fd5b50600e5461030d906001600160a01b031681565b3480156104d4575f80fd5b5061034b64012a05f20081565b3480156104ec575f80fd5b5061034b6104fb36600461205e565b6001600160a01b03165f9081526004602052604090205490565b348015610520575f80fd5b5061033961098d565b348015610534575f80fd5b5061033961054336600461205e565b6109a0565b348015610553575f80fd5b50610339610a6f565b348015610567575f80fd5b50610339610ae5565b34801561057b575f80fd5b50610339610beb565b34801561058f575f80fd5b505f546001600160a01b031661030d565b3480156105ab575f80fd5b5060105461030d906001600160a01b031681565b3480156105ca575f80fd5b5061030d6002604360981b0181565b3480156105e4575f80fd5b50600f5461030d906001600160a01b031681565b348015610603575f80fd5b50610339610612366004611fe5565b610db7565b348015610622575f80fd5b506102e4610631366004611fbb565b610e4d565b348015610641575f80fd5b5060135461030d906001600160a01b031681565b348015610660575f80fd5b506102e461066f366004611fbb565b610edd565b34801561067f575f80fd5b506102e461068e36600461205e565b6001600160a01b03165f9081526006602052604090205460ff1690565b3480156106b6575f80fd5b50610339610efd565b3480156106ca575f80fd5b506102e46106d936600461205e565b60076020525f908152604090205460ff1681565b3480156106f8575f80fd5b506013546102e490600160a01b900460ff1681565b348015610718575f80fd5b5061033961072736600461205e565b610f1d565b348015610737575f80fd5b506013546102e490600160a81b900460ff1681565b348015610757575f80fd5b5061033961076636600461205e565b610f85565b348015610776575f80fd5b50610339611248565b34801561078a575f80fd5b50600a54600b54604080519283526020830191909152016102bc565b3480156107b1575f80fd5b5061034b6107c0366004612090565b6001600160a01b039182165f90815260056020908152604080832093909416825291909152205490565b3480156107f5575f80fd5b5061033961080436600461205e565b6112c4565b348015610814575f80fd5b5061033961133a565b348015610828575f80fd5b5060125461030d906001600160a01b031681565b5f610848338484611489565b5060015b92915050565b61085a611596565b601354600160a81b900460ff166108cc5760405162461bcd60e51b815260206004820152602b60248201527f4e6f2070656e64696e6720424c41434b4841544341542077697468647261776160448201526a1b081d1bc818d85b98d95b60aa1b60648201526084015b60405180910390fd5b6013805460ff60a81b19169055565b6108e3611596565b6001600160a01b03919091165f908152600660205260409020805460ff1916911515919091179055565b5f6109198484846115ef565b5060019392505050565b335f8181526005602090815260408083206001600160a01b038716845290915281205490916108489185906109599086906120d0565b611489565b610966611596565b5f6109736012600a6121c3565b61097d90836121ce565b905061098933826116d6565b5050565b610995611596565b61099e5f611868565b565b6109a8611596565b6001600160a01b038116610a105760405162461bcd60e51b815260206004820152602960248201527f4d61726b6574696e672072656365697665722063616e6e6f74206265207a65726044820152686f206164647265737360b81b60648201526084016108c3565b600c80546001600160a01b0319166001600160a01b0383169081179091555f81815260066020526040808220805460ff19166001179055517f1a9ebc3770a8a35e7494c4635aaedfa9f174ae61261b6e3aac36aeffc590cb649190a250565b610a77611596565b604051634aa7d2f760e11b81523060048201523360248201526002604360981b019063954fa5ee906044016020604051808303815f875af1158015610abe573d5f803e3d5ffd5b505050506040513d601f19601f82011682018060405250810190610ae291906121e5565b50565b610aed611596565b305f90815260046020526040902054479081151580610b0b57505f81115b610b4d5760405162461bcd60e51b81526020600482015260136024820152724e6f7468696e6720746f20776974686472617760681b60448201526064016108c3565b8115610b8b575f80546040516001600160a01b039091169184156108fc02918591818181858888f19350505050158015610b89573d5f803e3d5ffd5b505b8015610bac57610bac30610ba65f546001600160a01b031690565b836118b7565b604080518381526020810183905233917fae7bb41990cd336548a7c61b3ffa4a8207fe5e886087c23f5739a99114be7839910160405180910390a25050565b610bf3611596565b601354600160a01b900460ff1615610c595760405162461bcd60e51b8152602060048201526024808201527f416e20455448207769746864726177616c20697320616c72656164792070656e60448201526364696e6760e01b60648201526084016108c3565b668e1bc9bf040000475f610c6f4261012c6120d0565b9050804210610cb85760405162461bcd60e51b8152602060048201526015602482015274151c985b9cd858dd1a5bdb881d1a5b5959081bdd5d605a1b60448201526064016108c3565b828211610d205760405162461bcd60e51b815260206004820152603060248201527f4e6f7420656e6f7567682045544820696e20636f6e747261637420746f20706560448201526f1c999bdc9b481dda5d1a191c985dd85b60821b60648201526084016108c3565b5f610d2b84846121fc565b600c546040519192506001600160a01b03169082156108fc029083905f818181858888f19350505050158015610d63573d5f803e3d5ffd5b506040805182815247602082015233917f72a57d3d6134a77e651e2e97750615e224e690db64db56520c4d2d16edd5fc9f910160405180910390a250506013805460ff60a01b1916600160a01b1790555050565b610dbf611596565b6013546001600160a01b0390811690831603610e435760405162461bcd60e51b815260206004820152603960248201527f54686520706169722063616e6e6f742062652072656d6f7665642066726f6d2060448201527f6175746f6d617465644d61726b65744d616b657250616972730000000000000060648201526084016108c3565b6109898282611a98565b335f9081526005602090815260408083206001600160a01b038616845290915281205482811015610ece5760405162461bcd60e51b815260206004820152602560248201527f45524332303a2064656372656173656420616c6c6f77616e63652062656c6f77604482015264207a65726f60d81b60648201526084016108c3565b610919338561095986856121fc565b5f610ee6611aeb565b610ef1338484611b44565b50600161084c60018055565b610f05611596565b305f90815260046020526040902054610ae281611b55565b610f25611596565b60405163c8992e6160e01b81526002604360981b019063c8992e6190610f55906002906001908690600401612223565b5f604051808303815f87803b158015610f6c575f80fd5b505af1158015610f7e573d5f803e3d5ffd5b5050505050565b610f8d611596565b6001600160a01b038116610ffa5760405162461bcd60e51b815260206004820152602e60248201527f424c41434b4841544341543a20526f757465722063616e6e6f7420626520746860448201526d65207a65726f206164647265737360901b60648201526084016108c3565b6012546001600160a01b03908116908216036110725760405162461bcd60e51b815260206004820152603160248201527f424c41434b4841544341543a204e657720726f757465722061646472657373206044820152701b5d5cdd08189948191a5999995c995b9d607a1b60648201526084016108c3565b5f8190505f816001600160a01b031663c45a01556040518163ffffffff1660e01b8152600401602060405180830381865afa1580156110b3573d5f803e3d5ffd5b505050506040513d601f19601f820116820180604052508101906110d79190612269565b6001600160a01b031663c9c6539630846001600160a01b031663ad5c46486040518163ffffffff1660e01b8152600401602060405180830381865afa158015611122573d5f803e3d5ffd5b505050506040513d601f19601f820116820180604052508101906111469190612269565b6040516001600160e01b031960e085901b1681526001600160a01b039283166004820152911660248201526044016020604051808303815f875af1158015611190573d5f803e3d5ffd5b505050506040513d601f19601f820116820180604052508101906111b49190612269565b601280546001600160a01b038086166001600160a01b031992831617909255601380549284169290911691909117905590506111f1816001611a98565b6001600160a01b038082165f81815260066020526040808220805460ff1916600117905551919285811692908716917feb7c1e97c05570337fe795ab9d5755a8f731c9c52e756b720275940fa283327691a4505050565b611250611596565b601354600160a01b900460ff166112b55760405162461bcd60e51b815260206004820152602360248201527f4e6f2070656e64696e6720455448207769746864726177616c20746f2063616e60448201526218d95b60ea1b60648201526084016108c3565b6013805460ff60a01b19169055565b6112cc611596565b6001600160a01b0381166113315760405162461bcd60e51b815260206004820152602660248201527f4f776e61626c653a206e6577206f776e657220697320746865207a65726f206160448201526564647265737360d01b60648201526084016108c3565b610ae281611868565b611342611596565b601354600160a81b900460ff16156113b05760405162461bcd60e51b815260206004820152602b60248201527f4120424c41434b484154434154207769746864726177616c20697320616c726560448201526a6164792070656e64696e6760a81b60648201526084016108c3565b305f90815260046020526040902054806114045760405162461bcd60e51b81526020600482015260156024820152742737903a37b5b2b739903a37903a3930b739b332b960591b60448201526064016108c3565b5f6114114261012c6120d0565b905080421061145a5760405162461bcd60e51b8152602060048201526015602482015274151c985b9cd858dd1a5bdb881d1a5b5959081bdd5d605a1b60448201526064016108c3565b600c546114729030906001600160a01b0316846118b7565b50506013805460ff60a81b1916600160a81b179055565b6001600160a01b0383166114df5760405162461bcd60e51b815260206004820181905260248201527f45524332303a20617070726f76652066726f6d207a65726f206164647265737360448201526064016108c3565b6001600160a01b0382166115355760405162461bcd60e51b815260206004820152601e60248201527f45524332303a20617070726f766520746f207a65726f2061646472657373000060448201526064016108c3565b6001600160a01b038381165f8181526005602090815260408083209487168084529482529182902085905590518481527f8c5be1e5ebec7d5bd14f71427d1e84f3dd0314c0f7b2291e5b200ac8c7c3b92591015b60405180910390a3505050565b5f546001600160a01b0316331461099e5760405162461bcd60e51b815260206004820181905260248201527f4f776e61626c653a2063616c6c6572206973206e6f7420746865206f776e657260448201526064016108c3565b6001600160a01b0383165f9081526005602090815260408083203384529091529020548111156116725760405162461bcd60e51b815260206004820152602860248201527f45524332303a207472616e7366657220616d6f756e74206578636565647320616044820152676c6c6f77616e636560c01b60648201526084016108c3565b61167d838383611b44565b6001600160a01b0383165f9081526005602090815260408083203384529091529020546116ab9082906121fc565b6001600160a01b039093165f9081526005602090815260408083203384529091529020929092555050565b6001600160a01b0382166117365760405162461bcd60e51b815260206004820152602160248201527f43616e6e6f74206275726e2066726f6d20746865207a65726f206164647265736044820152607360f81b60648201526084016108c3565b6001600160a01b0382165f9081526004602052604090205481111561179d5760405162461bcd60e51b815260206004820152601c60248201527f496e73756666696369656e742062616c616e636520746f206275726e0000000060448201526064016108c3565b6001600160a01b0382165f90815260046020526040812080548392906117c49084906121fc565b925050819055508060025f8282546117dc91906121fc565b90915550506040518181526001600160a01b038316907fcc16f5dbb4873280815c1ee09dbd06736cffcc184412cf7a71a0fdb75d397ca59060200160405180910390a2600d546040518281526001600160a01b03918216918416907fddf252ad1be2c89b69c2b068fc378daa952ba7f163c4a11628f55a4df523b3ef9060200160405180910390a35050565b5f80546001600160a01b038381166001600160a01b0319831681178455604051919092169283917f8be0079c531659141344cd1fd0a4f28419497f9722a3daafe3b4186f6b6457e09190a35050565b6001600160a01b03831661191b5760405162461bcd60e51b815260206004820152602560248201527f45524332303a207472616e736665722066726f6d20746865207a65726f206164604482015264647265737360d81b60648201526084016108c3565b6001600160a01b03821661197d5760405162461bcd60e51b815260206004820152602360248201527f45524332303a207472616e7366657220746f20746865207a65726f206164647260448201526265737360e81b60648201526084016108c3565b6001600160a01b0383165f908152600460205260409020548111156119f35760405162461bcd60e51b815260206004820152602660248201527f45524332303a207472616e7366657220616d6f756e7420657863656564732062604482015265616c616e636560d01b60648201526084016108c3565b6001600160a01b0383165f90815260046020526040902054611a169082906121fc565b6001600160a01b038085165f908152600460205260408082209390935590841681522054611a459082906120d0565b6001600160a01b038084165f8181526004602052604090819020939093559151908516907fddf252ad1be2c89b69c2b068fc378daa952ba7f163c4a11628f55a4df523b3ef906115899085815260200190565b6001600160a01b0382165f81815260076020526040808220805460ff191685151590811790915590519092917fffa9187bf1f18bf477bd0ea1bcbb64e93b6a98132473929edfce215cd9b16fab91a35050565b600260015403611b3d5760405162461bcd60e51b815260206004820152601f60248201527f5265656e7472616e637947756172643a207265656e7472616e742063616c6c0060448201526064016108c3565b6002600155565b611b4f838383611ca5565b50505050565b6040805160028082526060820183525f9260208301908036833701905050905030815f81518110611b8857611b88612284565b6001600160a01b03928316602091820292909201810191909152601254604080516315ab88c960e31b81529051919093169263ad5c46489260048083019391928290030181865afa158015611bdf573d5f803e3d5ffd5b505050506040513d601f19601f82011682018060405250810190611c039190612269565b81600181518110611c1657611c16612284565b6001600160a01b039283166020918202929092010152601254611c3c9130911684611489565b60125460405163791ac94760e01b81526001600160a01b039091169063791ac94790611c749085905f90869030904290600401612298565b5f604051808303815f87803b158015611c8b575f80fd5b505af1158015611c9d573d5f803e3d5ffd5b505050505050565b6001600160a01b0383165f90815260066020526040812054819060ff16158015611ce757506001600160a01b0384165f9081526006602052604090205460ff16155b15611d2c57611cf68585611dd7565b15611d0e57611d0783600a54611e36565b9050611d2c565b611d188585611ec8565b15611d2c57611d2983600b54611e36565b90505b8015611d7c57611d3d8530836118b7565b6001600160a01b0385165f9081526007602052604090205460ff16611d7c57611d6581611b55565b6003544790811115611d7a57611d7a81611f25565b505b5f611d8782856121fc565b60408051848152602081018390529192507f667f096cc04f4af8b2901c952650ea69fe7e4a5c5914f7dee3fe25230327bb40910160405180910390a1611dce8686836118b7565b95945050505050565b6001600160a01b0382165f9081526007602052604081205460ff16158015611e1657506001600160a01b0382165f9081526007602052604090205460ff165b8015611e2f57505f546001600160a01b03848116911614155b9392505050565b5f611e42825f19612307565b831115611ea75760405162461bcd60e51b815260206004820152602d60248201527f45524332303a2061726974686d65746963206f766572666c6f7720696e20666560448201526c329031b0b631bab630ba34b7b760991b60648201526084016108c3565b6009545f90611eb684866121ce565b611ec09190612307565b949350505050565b6001600160a01b0382165f9081526007602052604081205460ff168015611f0757506001600160a01b0382165f9081526007602052604090205460ff16155b8015611e2f5750505f546001600160a01b0391821691161415919050565b600c546040516001600160a01b039091169082156108fc029083905f818181858888f19350505050158015610989573d5f803e3d5ffd5b5f6020808352835180828501525f5b81811015611f8757858101830151858201604001528201611f6b565b505f604082860101526040601f19601f8301168501019250505092915050565b6001600160a01b0381168114610ae2575f80fd5b5f8060408385031215611fcc575f80fd5b8235611fd781611fa7565b946020939093013593505050565b5f8060408385031215611ff6575f80fd5b823561200181611fa7565b915060208301358015158114612015575f80fd5b809150509250929050565b5f805f60608486031215612032575f80fd5b833561203d81611fa7565b9250602084013561204d81611fa7565b929592945050506040919091013590565b5f6020828403121561206e575f80fd5b8135611e2f81611fa7565b5f60208284031215612089575f80fd5b5035919050565b5f80604083850312156120a1575f80fd5b82356120ac81611fa7565b9150602083013561201581611fa7565b634e487b7160e01b5f52601160045260245ffd5b8082018082111561084c5761084c6120bc565b600181815b8085111561211d57815f1904821115612103576121036120bc565b8085161561211057918102915b93841c93908002906120e8565b509250929050565b5f826121335750600161084c565b8161213f57505f61084c565b8160018114612155576002811461215f5761217b565b600191505061084c565b60ff841115612170576121706120bc565b50506001821b61084c565b5060208310610133831016604e8410600b841016171561219e575081810a61084c565b6121a883836120e3565b805f19048211156121bb576121bb6120bc565b029392505050565b5f611e2f8383612125565b808202811582820484141761084c5761084c6120bc565b5f602082840312156121f5575f80fd5b5051919050565b8181038181111561084c5761084c6120bc565b634e487b7160e01b5f52602160045260245ffd5b60608101600385106122375761223761220f565b8482526002841061224a5761224a61220f565b60208201939093526001600160a01b0391909116604090910152919050565b5f60208284031215612279575f80fd5b8151611e2f81611fa7565b634e487b7160e01b5f52603260045260245ffd5b5f60a082018783526020878185015260a0604085015281875180845260c08601915082890193505f5b818110156122e65784516001600160a01b0316835293830193918301916001016122c1565b50506001600160a01b03969096166060850152505050608001529392505050565b5f8261232157634e487b7160e01b5f52601260045260245ffd5b50049056fea264697066735822122048f243c602c4e0f38f3f79228d217d652e9e01671cd20e86647c0af54033dbb564736f6c63430008150033","opcodes":"PUSH1 0x80 PUSH1 0x40 MSTORE PUSH3 0x12 PUSH1 0x12 PUSH1 0xA PUSH3 0x36D JUMP JUMPDEST PUSH3 0x23 SWAP1 PUSH5 0xE8D4A51000 PUSH3 0x384 JUMP JUMPDEST PUSH1 0x2 SSTORE PUSH8 0x16345785D8A0000 PUSH1 0x3 SSTORE PUSH1 0x64 PUSH1 0x9 SSTORE PUSH1 0x1 PUSH1 0xA DUP2 SWAP1 SSTORE PUSH1 0xB SSTORE PUSH1 0xD DUP1 SLOAD PUSH1 0x1 PUSH1 0x1 PUSH1 0xA0 SHL SUB NOT SWAP1 DUP2 AND PUSH2 0xDEAD OR SWAP1 SWAP2 SSTORE PUSH1 0xE DUP1 SLOAD DUP3 AND PUSH20 0x44889B52B71E60DE6ED7DE82E2939FCC52FB2B4E SWAP1 DUP2 OR SWAP1 SWAP2 SSTORE PUSH1 0xF DUP1 SLOAD DUP4 AND SWAP1 SWAP2 OR DUP2 SSTORE PUSH1 0x10 DUP1 SLOAD SWAP1 SWAP3 AND PUSH20 0xE470699F6D0384E3EA68F1144E41D22C6C8FDEEF OR SWAP1 SWAP2 SSTORE PUSH1 0x11 SSTORE PUSH1 0x13 DUP1 SLOAD PUSH2 0xFFFF PUSH1 0xA0 SHL NOT AND SWAP1 SSTORE CALLVALUE DUP1 ISZERO PUSH3 0xC1 JUMPI PUSH0 DUP1 REVERT JUMPDEST POP PUSH3 0xCD CALLER PUSH3 0x20F JUMP JUMPDEST PUSH1 0x1 DUP1 DUP1 SSTORE PUSH1 0xC DUP1 SLOAD PUSH1 0x1 PUSH1 0x1 PUSH1 0xA0 SHL SUB NOT AND PUSH20 0xEB7E46E3992ADE01AC32959EBDD306EFBA811B8C OR DUP2 SSTORE ADDRESS PUSH0 SWAP1 DUP2 MSTORE PUSH1 0x6 PUSH1 0x20 MSTORE PUSH1 0x40 DUP1 DUP3 KECCAK256 DUP1 SLOAD PUSH1 0xFF NOT SWAP1 DUP2 AND DUP7 OR SWAP1 SWAP2 SSTORE SWAP3 SLOAD PUSH1 0x1 PUSH1 0x1 PUSH1 0xA0 SHL SUB SWAP1 DUP2 AND DUP4 MSTORE DUP2 DUP4 KECCAK256 DUP1 SLOAD DUP6 AND DUP7 OR SWAP1 SSTORE CALLER DUP4 MSTORE DUP2 DUP4 KECCAK256 DUP1 SLOAD DUP6 AND DUP7 OR SWAP1 SSTORE PUSH1 0xE SLOAD DUP2 AND DUP4 MSTORE DUP2 DUP4 KECCAK256 DUP1 SLOAD DUP6 AND DUP7 OR SWAP1 SSTORE PUSH1 0x13 SLOAD AND DUP3 MSTORE DUP1 DUP3 KECCAK256 DUP1 SLOAD SWAP1 SWAP4 AND SWAP1 SWAP4 OR SWAP1 SWAP2 SSTORE DUP2 MLOAD PUSH4 0x4E606C47 PUSH1 0xE0 SHL DUP2 MSTORE SWAP2 MLOAD PUSH20 0x4300000000000000000000000000000000000002 SWAP3 PUSH4 0x4E606C47 SWAP3 PUSH1 0x4 DUP1 DUP4 ADD SWAP4 SWAP2 SWAP3 DUP3 SWAP1 SUB ADD DUP2 DUP4 DUP8 DUP1 EXTCODESIZE ISZERO DUP1 ISZERO PUSH3 0x1A9 JUMPI PUSH0 DUP1 REVERT JUMPDEST POP GAS CALL ISZERO DUP1 ISZERO PUSH3 0x1BC JUMPI RETURNDATASIZE PUSH0 DUP1 RETURNDATACOPY RETURNDATASIZE PUSH0 REVERT JUMPDEST POP POP PUSH1 0x2 SLOAD CALLER PUSH0 DUP2 DUP2 MSTORE PUSH1 0x4 PUSH1 0x20 SWAP1 DUP2 MSTORE PUSH1 0x40 DUP1 DUP4 KECCAK256 DUP6 SWAP1 SSTORE MLOAD SWAP4 DUP5 MSTORE SWAP2 SWAP5 POP SWAP3 POP PUSH32 0xDDF252AD1BE2C89B69C2B068FC378DAA952BA7F163C4A11628F55A4DF523B3EF SWAP2 ADD PUSH1 0x40 MLOAD DUP1 SWAP2 SUB SWAP1 LOG3 PUSH3 0x39E JUMP JUMPDEST PUSH0 DUP1 SLOAD PUSH1 0x1 PUSH1 0x1 PUSH1 0xA0 SHL SUB DUP4 DUP2 AND PUSH1 0x1 PUSH1 0x1 PUSH1 0xA0 SHL SUB NOT DUP4 AND DUP2 OR DUP5 SSTORE PUSH1 0x40 MLOAD SWAP2 SWAP1 SWAP3 AND SWAP3 DUP4 SWAP2 PUSH32 0x8BE0079C531659141344CD1FD0A4F28419497F9722A3DAAFE3B4186F6B6457E0 SWAP2 SWAP1 LOG3 POP POP JUMP JUMPDEST PUSH4 0x4E487B71 PUSH1 0xE0 SHL PUSH0 MSTORE PUSH1 0x11 PUSH1 0x4 MSTORE PUSH1 0x24 PUSH0 REVERT JUMPDEST PUSH1 0x1 DUP2 DUP2 JUMPDEST DUP1 DUP6 GT ISZERO PUSH3 0x2B2 JUMPI DUP2 PUSH0 NOT DIV DUP3 GT ISZERO PUSH3 0x296 JUMPI PUSH3 0x296 PUSH3 0x25E JUMP JUMPDEST DUP1 DUP6 AND ISZERO PUSH3 0x2A4 JUMPI SWAP2 DUP2 MUL SWAP2 JUMPDEST SWAP4 DUP5 SHR SWAP4 SWAP1 DUP1 MUL SWAP1 PUSH3 0x277 JUMP JUMPDEST POP SWAP3 POP SWAP3 SWAP1 POP JUMP JUMPDEST PUSH0 DUP3 PUSH3 0x2CA JUMPI POP PUSH1 0x1 PUSH3 0x367 JUMP JUMPDEST DUP2 PUSH3 0x2D8 JUMPI POP PUSH0 PUSH3 0x367 JUMP JUMPDEST DUP2 PUSH1 0x1 DUP2 EQ PUSH3 0x2F1 JUMPI PUSH1 0x2 DUP2 EQ PUSH3 0x2FC JUMPI PUSH3 0x31C JUMP JUMPDEST PUSH1 0x1 SWAP2 POP POP PUSH3 0x367 JUMP JUMPDEST PUSH1 0xFF DUP5 GT ISZERO PUSH3 0x310 JUMPI PUSH3 0x310 PUSH3 0x25E JUMP JUMPDEST POP POP PUSH1 0x1 DUP3 SHL PUSH3 0x367 JUMP JUMPDEST POP PUSH1 0x20 DUP4 LT PUSH2 0x133 DUP4 LT AND PUSH1 0x4E DUP5 LT PUSH1 0xB DUP5 LT AND OR ISZERO PUSH3 0x341 JUMPI POP DUP2 DUP2 EXP PUSH3 0x367 JUMP JUMPDEST PUSH3 0x34D DUP4 DUP4 PUSH3 0x272 JUMP JUMPDEST DUP1 PUSH0 NOT DIV DUP3 GT ISZERO PUSH3 0x363 JUMPI PUSH3 0x363 PUSH3 0x25E JUMP JUMPDEST MUL SWAP1 POP JUMPDEST SWAP3 SWAP2 POP POP JUMP JUMPDEST PUSH0 PUSH3 0x37D PUSH1 0xFF DUP5 AND DUP4 PUSH3 0x2BA JUMP JUMPDEST SWAP4 SWAP3 POP POP POP JUMP JUMPDEST DUP1 DUP3 MUL DUP2 ISZERO DUP3 DUP3 DIV DUP5 EQ OR PUSH3 0x367 JUMPI PUSH3 0x367 PUSH3 0x25E JUMP JUMPDEST PUSH2 0x235C DUP1 PUSH3 0x3AC PUSH0 CODECOPY PUSH0 RETURN INVALID PUSH1 0x80 PUSH1 0x40 MSTORE PUSH1 0x4 CALLDATASIZE LT PUSH2 0x278 JUMPI PUSH0 CALLDATALOAD PUSH1 0xE0 SHR DUP1 PUSH4 0x834B39B7 GT PUSH2 0x14A JUMPI DUP1 PUSH4 0xB11AC997 GT PUSH2 0xBE JUMPI DUP1 PUSH4 0xC55D1455 GT PUSH2 0x78 JUMPI DUP1 PUSH4 0xC55D1455 EQ PUSH2 0x76B JUMPI DUP1 PUSH4 0xDB8D55F1 EQ PUSH2 0x77F JUMPI DUP1 PUSH4 0xDD62ED3E EQ PUSH2 0x7A6 JUMPI DUP1 PUSH4 0xF2FDE38B EQ PUSH2 0x7EA JUMPI DUP1 PUSH4 0xF5E73620 EQ PUSH2 0x809 JUMPI DUP1 PUSH4 0xF887EA40 EQ PUSH2 0x81D JUMPI PUSH0 DUP1 REVERT JUMPDEST DUP1 PUSH4 0xB11AC997 EQ PUSH2 0x6AB JUMPI DUP1 PUSH4 0xB62496F5 EQ PUSH2 0x6BF JUMPI DUP1 PUSH4 0xBB3B3EAD EQ PUSH2 0x6ED JUMPI DUP1 PUSH4 0xBE4D0AE7 EQ PUSH2 0x70D JUMPI DUP1 PUSH4 0xC0A5788C EQ PUSH2 0x72C JUMPI DUP1 PUSH4 0xC0D78655 EQ PUSH2 0x74C JUMPI PUSH0 DUP1 REVERT JUMPDEST DUP1 PUSH4 0x988297A6 GT PUSH2 0x10F JUMPI DUP1 PUSH4 0x988297A6 EQ PUSH2 0x5D9 JUMPI DUP1 PUSH4 0x9A7A23D6 EQ PUSH2 0x5F8 JUMPI DUP1 PUSH4 0xA457C2D7 EQ PUSH2 0x617 JUMPI DUP1 PUSH4 0xA8AA1B31 EQ PUSH2 0x636 JUMPI DUP1 PUSH4 0xA9059CBB EQ PUSH2 0x655 JUMPI DUP1 PUSH4 0xAD5DFF73 EQ PUSH2 0x674 JUMPI PUSH0 DUP1 REVERT JUMPDEST DUP1 PUSH4 0x834B39B7 EQ PUSH2 0x570 JUMPI DUP1 PUSH4 0x8DA5CB5B EQ PUSH2 0x584 JUMPI DUP1 PUSH4 0x927818AF EQ PUSH2 0x5A0 JUMPI DUP1 PUSH4 0x95D89B41 EQ PUSH2 0x283 JUMPI DUP1 PUSH4 0x97D75776 EQ PUSH2 0x5BF JUMPI PUSH0 DUP1 REVERT JUMPDEST DUP1 PUSH4 0x3F4218E0 GT PUSH2 0x1EC JUMPI DUP1 PUSH4 0x5A7BA18F GT PUSH2 0x1A6 JUMPI DUP1 PUSH4 0x5A7BA18F EQ PUSH2 0x4C9 JUMPI DUP1 PUSH4 0x70A08231 EQ PUSH2 0x4E1 JUMPI DUP1 PUSH4 0x715018A6 EQ PUSH2 0x515 JUMPI DUP1 PUSH4 0x75B62532 EQ PUSH2 0x529 JUMPI DUP1 PUSH4 0x77D5D2DC EQ PUSH2 0x548 JUMPI DUP1 PUSH4 0x80710F39 EQ PUSH2 0x55C JUMPI PUSH0 DUP1 REVERT JUMPDEST DUP1 PUSH4 0x3F4218E0 EQ PUSH2 0x405 JUMPI DUP1 PUSH4 0x40257AC8 EQ PUSH2 0x433 JUMPI DUP1 PUSH4 0x42966C68 EQ PUSH2 0x448 JUMPI DUP1 PUSH4 0x47062402 EQ PUSH2 0x467 JUMPI DUP1 PUSH4 0x4FB94550 EQ PUSH2 0x47C JUMPI DUP1 PUSH4 0x534C0906 EQ PUSH2 0x4AA JUMPI PUSH0 DUP1 REVERT JUMPDEST DUP1 PUSH4 0x2161C734 GT PUSH2 0x23D JUMPI DUP1 PUSH4 0x2161C734 EQ PUSH2 0x359 JUMPI DUP1 PUSH4 0x23B872DD EQ PUSH2 0x378 JUMPI DUP1 PUSH4 0x2B14CA56 EQ PUSH2 0x397 JUMPI DUP1 PUSH4 0x313CE567 EQ PUSH2 0x3AC JUMPI DUP1 PUSH4 0x36CF7C87 EQ PUSH2 0x3C7 JUMPI DUP1 PUSH4 0x39509351 EQ PUSH2 0x3E6 JUMPI PUSH0 DUP1 REVERT JUMPDEST DUP1 PUSH4 0x6FDDE03 EQ PUSH2 0x283 JUMPI DUP1 PUSH4 0x95EA7B3 EQ PUSH2 0x2C5 JUMPI DUP1 PUSH4 0x127B7A63 EQ PUSH2 0x2F4 JUMPI DUP1 PUSH4 0x136F84D3 EQ PUSH2 0x325 JUMPI DUP1 PUSH4 0x18160DDD EQ PUSH2 0x33B JUMPI PUSH0 DUP1 REVERT JUMPDEST CALLDATASIZE PUSH2 0x27F JUMPI STOP JUMPDEST PUSH0 DUP1 REVERT JUMPDEST CALLVALUE DUP1 ISZERO PUSH2 0x28E JUMPI PUSH0 DUP1 REVERT JUMPDEST POP PUSH1 0x40 DUP1 MLOAD DUP1 DUP3 ADD DUP3 MSTORE PUSH1 0xB DUP2 MSTORE PUSH11 0x10931050D2D2105510D055 PUSH1 0xAA SHL PUSH1 0x20 DUP3 ADD MSTORE SWAP1 MLOAD PUSH2 0x2BC SWAP2 SWAP1 PUSH2 0x1F5C JUMP JUMPDEST PUSH1 0x40 MLOAD DUP1 SWAP2 SUB SWAP1 RETURN JUMPDEST CALLVALUE DUP1 ISZERO PUSH2 0x2D0 JUMPI PUSH0 DUP1 REVERT JUMPDEST POP PUSH2 0x2E4 PUSH2 0x2DF CALLDATASIZE PUSH1 0x4 PUSH2 0x1FBB JUMP JUMPDEST PUSH2 0x83C JUMP JUMPDEST PUSH1 0x40 MLOAD SWAP1 ISZERO ISZERO DUP2 MSTORE PUSH1 0x20 ADD PUSH2 0x2BC JUMP JUMPDEST CALLVALUE DUP1 ISZERO PUSH2 0x2FF JUMPI PUSH0 DUP1 REVERT JUMPDEST POP PUSH1 0xC SLOAD PUSH1 0x1 PUSH1 0x1 PUSH1 0xA0 SHL SUB AND JUMPDEST PUSH1 0x40 MLOAD PUSH1 0x1 PUSH1 0x1 PUSH1 0xA0 SHL SUB SWAP1 SWAP2 AND DUP2 MSTORE PUSH1 0x20 ADD PUSH2 0x2BC JUMP JUMPDEST CALLVALUE DUP1 ISZERO PUSH2 0x330 JUMPI PUSH0 DUP1 REVERT JUMPDEST POP PUSH2 0x339 PUSH2 0x852 JUMP JUMPDEST STOP JUMPDEST CALLVALUE DUP1 ISZERO PUSH2 0x346 JUMPI PUSH0 DUP1 REVERT JUMPDEST POP PUSH1 0x2 SLOAD JUMPDEST PUSH1 0x40 MLOAD SWAP1 DUP2 MSTORE PUSH1 0x20 ADD PUSH2 0x2BC JUMP JUMPDEST CALLVALUE DUP1 ISZERO PUSH2 0x364 JUMPI PUSH0 DUP1 REVERT JUMPDEST POP PUSH2 0x339 PUSH2 0x373 CALLDATASIZE PUSH1 0x4 PUSH2 0x1FE5 JUMP JUMPDEST PUSH2 0x8DB JUMP JUMPDEST CALLVALUE DUP1 ISZERO PUSH2 0x383 JUMPI PUSH0 DUP1 REVERT JUMPDEST POP PUSH2 0x2E4 PUSH2 0x392 CALLDATASIZE PUSH1 0x4 PUSH2 0x2020 JUMP JUMPDEST PUSH2 0x90D JUMP JUMPDEST CALLVALUE DUP1 ISZERO PUSH2 0x3A2 JUMPI PUSH0 DUP1 REVERT JUMPDEST POP PUSH2 0x34B PUSH1 0xA SLOAD DUP2 JUMP JUMPDEST CALLVALUE DUP1 ISZERO PUSH2 0x3B7 JUMPI PUSH0 DUP1 REVERT JUMPDEST POP PUSH1 0x40 MLOAD PUSH1 0x12 DUP2 MSTORE PUSH1 0x20 ADD PUSH2 0x2BC JUMP JUMPDEST CALLVALUE DUP1 ISZERO PUSH2 0x3D2 JUMPI PUSH0 DUP1 REVERT JUMPDEST POP PUSH1 0xD SLOAD PUSH2 0x30D SWAP1 PUSH1 0x1 PUSH1 0x1 PUSH1 0xA0 SHL SUB AND DUP2 JUMP JUMPDEST CALLVALUE DUP1 ISZERO PUSH2 0x3F1 JUMPI PUSH0 DUP1 REVERT JUMPDEST POP PUSH2 0x2E4 PUSH2 0x400 CALLDATASIZE PUSH1 0x4 PUSH2 0x1FBB JUMP JUMPDEST PUSH2 0x923 JUMP JUMPDEST CALLVALUE DUP1 ISZERO PUSH2 0x410 JUMPI PUSH0 DUP1 REVERT JUMPDEST POP PUSH2 0x2E4 PUSH2 0x41F CALLDATASIZE PUSH1 0x4 PUSH2 0x205E JUMP JUMPDEST PUSH1 0x6 PUSH1 0x20 MSTORE PUSH0 SWAP1 DUP2 MSTORE PUSH1 0x40 SWAP1 KECCAK256 SLOAD PUSH1 0xFF AND DUP2 JUMP JUMPDEST CALLVALUE DUP1 ISZERO PUSH2 0x43E JUMPI PUSH0 DUP1 REVERT JUMPDEST POP PUSH2 0x34B PUSH1 0x3 SLOAD DUP2 JUMP JUMPDEST CALLVALUE DUP1 ISZERO PUSH2 0x453 JUMPI PUSH0 DUP1 REVERT JUMPDEST POP PUSH2 0x339 PUSH2 0x462 CALLDATASIZE PUSH1 0x4 PUSH2 0x2079 JUMP JUMPDEST PUSH2 0x95E JUMP JUMPDEST CALLVALUE DUP1 ISZERO PUSH2 0x472 JUMPI PUSH0 DUP1 REVERT JUMPDEST POP PUSH2 0x34B PUSH1 0xB SLOAD DUP2 JUMP JUMPDEST CALLVALUE DUP1 ISZERO PUSH2 0x487 JUMPI PUSH0 DUP1 REVERT JUMPDEST POP PUSH2 0x2E4 PUSH2 0x496 CALLDATASIZE PUSH1 0x4 PUSH2 0x205E JUMP JUMPDEST PUSH1 0x8 PUSH1 0x20 MSTORE PUSH0 SWAP1 DUP2 MSTORE PUSH1 0x40 SWAP1 KECCAK256 SLOAD PUSH1 0xFF AND DUP2 JUMP JUMPDEST CALLVALUE DUP1 ISZERO PUSH2 0x4B5 JUMPI PUSH0 DUP1 REVERT JUMPDEST POP PUSH1 0xE SLOAD PUSH2 0x30D SWAP1 PUSH1 0x1 PUSH1 0x1 PUSH1 0xA0 SHL SUB AND DUP2 JUMP JUMPDEST CALLVALUE DUP1 ISZERO PUSH2 0x4D4 JUMPI PUSH0 DUP1 REVERT JUMPDEST POP PUSH2 0x34B PUSH5 0x12A05F200 DUP2 JUMP JUMPDEST CALLVALUE DUP1 ISZERO PUSH2 0x4EC JUMPI PUSH0 DUP1 REVERT JUMPDEST POP PUSH2 0x34B PUSH2 0x4FB CALLDATASIZE PUSH1 0x4 PUSH2 0x205E JUMP JUMPDEST PUSH1 0x1 PUSH1 0x1 PUSH1 0xA0 SHL SUB AND PUSH0 SWAP1 DUP2 MSTORE PUSH1 0x4 PUSH1 0x20 MSTORE PUSH1 0x40 SWAP1 KECCAK256 SLOAD SWAP1 JUMP JUMPDEST CALLVALUE DUP1 ISZERO PUSH2 0x520 JUMPI PUSH0 DUP1 REVERT JUMPDEST POP PUSH2 0x339 PUSH2 0x98D JUMP JUMPDEST CALLVALUE DUP1 ISZERO PUSH2 0x534 JUMPI PUSH0 DUP1 REVERT JUMPDEST POP PUSH2 0x339 PUSH2 0x543 CALLDATASIZE PUSH1 0x4 PUSH2 0x205E JUMP JUMPDEST PUSH2 0x9A0 JUMP JUMPDEST CALLVALUE DUP1 ISZERO PUSH2 0x553 JUMPI PUSH0 DUP1 REVERT JUMPDEST POP PUSH2 0x339 PUSH2 0xA6F JUMP JUMPDEST CALLVALUE DUP1 ISZERO PUSH2 0x567 JUMPI PUSH0 DUP1 REVERT JUMPDEST POP PUSH2 0x339 PUSH2 0xAE5 JUMP JUMPDEST CALLVALUE DUP1 ISZERO PUSH2 0x57B JUMPI PUSH0 DUP1 REVERT JUMPDEST POP PUSH2 0x339 PUSH2 0xBEB JUMP JUMPDEST CALLVALUE DUP1 ISZERO PUSH2 0x58F JUMPI PUSH0 DUP1 REVERT JUMPDEST POP PUSH0 SLOAD PUSH1 0x1 PUSH1 0x1 PUSH1 0xA0 SHL SUB AND PUSH2 0x30D JUMP JUMPDEST CALLVALUE DUP1 ISZERO PUSH2 0x5AB JUMPI PUSH0 DUP1 REVERT JUMPDEST POP PUSH1 0x10 SLOAD PUSH2 0x30D SWAP1 PUSH1 0x1 PUSH1 0x1 PUSH1 0xA0 SHL SUB AND DUP2 JUMP JUMPDEST CALLVALUE DUP1 ISZERO PUSH2 0x5CA JUMPI PUSH0 DUP1 REVERT JUMPDEST POP PUSH2 0x30D PUSH1 0x2 PUSH1 0x43 PUSH1 0x98 SHL ADD DUP2 JUMP JUMPDEST CALLVALUE DUP1 ISZERO PUSH2 0x5E4 JUMPI PUSH0 DUP1 REVERT JUMPDEST POP PUSH1 0xF SLOAD PUSH2 0x30D SWAP1 PUSH1 0x1 PUSH1 0x1 PUSH1 0xA0 SHL SUB AND DUP2 JUMP JUMPDEST CALLVALUE DUP1 ISZERO PUSH2 0x603 JUMPI PUSH0 DUP1 REVERT JUMPDEST POP PUSH2 0x339 PUSH2 0x612 CALLDATASIZE PUSH1 0x4 PUSH2 0x1FE5 JUMP JUMPDEST PUSH2 0xDB7 JUMP JUMPDEST CALLVALUE DUP1 ISZERO PUSH2 0x622 JUMPI PUSH0 DUP1 REVERT JUMPDEST POP PUSH2 0x2E4 PUSH2 0x631 CALLDATASIZE PUSH1 0x4 PUSH2 0x1FBB JUMP JUMPDEST PUSH2 0xE4D JUMP JUMPDEST CALLVALUE DUP1 ISZERO PUSH2 0x641 JUMPI PUSH0 DUP1 REVERT JUMPDEST POP PUSH1 0x13 SLOAD PUSH2 0x30D SWAP1 PUSH1 0x1 PUSH1 0x1 PUSH1 0xA0 SHL SUB AND DUP2 JUMP JUMPDEST CALLVALUE DUP1 ISZERO PUSH2 0x660 JUMPI PUSH0 DUP1 REVERT JUMPDEST POP PUSH2 0x2E4 PUSH2 0x66F CALLDATASIZE PUSH1 0x4 PUSH2 0x1FBB JUMP JUMPDEST PUSH2 0xEDD JUMP JUMPDEST CALLVALUE DUP1 ISZERO PUSH2 0x67F JUMPI PUSH0 DUP1 REVERT JUMPDEST POP PUSH2 0x2E4 PUSH2 0x68E CALLDATASIZE PUSH1 0x4 PUSH2 0x205E JUMP JUMPDEST PUSH1 0x1 PUSH1 0x1 PUSH1 0xA0 SHL SUB AND PUSH0 SWAP1 DUP2 MSTORE PUSH1 0x6 PUSH1 0x20 MSTORE PUSH1 0x40 SWAP1 KECCAK256 SLOAD PUSH1 0xFF AND SWAP1 JUMP JUMPDEST CALLVALUE DUP1 ISZERO PUSH2 0x6B6 JUMPI PUSH0 DUP1 REVERT JUMPDEST POP PUSH2 0x339 PUSH2 0xEFD JUMP JUMPDEST CALLVALUE DUP1 ISZERO PUSH2 0x6CA JUMPI PUSH0 DUP1 REVERT JUMPDEST POP PUSH2 0x2E4 PUSH2 0x6D9 CALLDATASIZE PUSH1 0x4 PUSH2 0x205E JUMP JUMPDEST PUSH1 0x7 PUSH1 0x20 MSTORE PUSH0 SWAP1 DUP2 MSTORE PUSH1 0x40 SWAP1 KECCAK256 SLOAD PUSH1 0xFF AND DUP2 JUMP JUMPDEST CALLVALUE DUP1 ISZERO PUSH2 0x6F8 JUMPI PUSH0 DUP1 REVERT JUMPDEST POP PUSH1 0x13 SLOAD PUSH2 0x2E4 SWAP1 PUSH1 0x1 PUSH1 0xA0 SHL SWAP1 DIV PUSH1 0xFF AND DUP2 JUMP JUMPDEST CALLVALUE DUP1 ISZERO PUSH2 0x718 JUMPI PUSH0 DUP1 REVERT JUMPDEST POP PUSH2 0x339 PUSH2 0x727 CALLDATASIZE PUSH1 0x4 PUSH2 0x205E JUMP JUMPDEST PUSH2 0xF1D JUMP JUMPDEST CALLVALUE DUP1 ISZERO PUSH2 0x737 JUMPI PUSH0 DUP1 REVERT JUMPDEST POP PUSH1 0x13 SLOAD PUSH2 0x2E4 SWAP1 PUSH1 0x1 PUSH1 0xA8 SHL SWAP1 DIV PUSH1 0xFF AND DUP2 JUMP JUMPDEST CALLVALUE DUP1 ISZERO PUSH2 0x757 JUMPI PUSH0 DUP1 REVERT JUMPDEST POP PUSH2 0x339 PUSH2 0x766 CALLDATASIZE PUSH1 0x4 PUSH2 0x205E JUMP JUMPDEST PUSH2 0xF85 JUMP JUMPDEST CALLVALUE DUP1 ISZERO PUSH2 0x776 JUMPI PUSH0 DUP1 REVERT JUMPDEST POP PUSH2 0x339 PUSH2 0x1248 JUMP JUMPDEST CALLVALUE DUP1 ISZERO PUSH2 0x78A JUMPI PUSH0 DUP1 REVERT JUMPDEST POP PUSH1 0xA SLOAD PUSH1 0xB SLOAD PUSH1 0x40 DUP1 MLOAD SWAP3 DUP4 MSTORE PUSH1 0x20 DUP4 ADD SWAP2 SWAP1 SWAP2 MSTORE ADD PUSH2 0x2BC JUMP JUMPDEST CALLVALUE DUP1 ISZERO PUSH2 0x7B1 JUMPI PUSH0 DUP1 REVERT JUMPDEST POP PUSH2 0x34B PUSH2 0x7C0 CALLDATASIZE PUSH1 0x4 PUSH2 0x2090 JUMP JUMPDEST PUSH1 0x1 PUSH1 0x1 PUSH1 0xA0 SHL SUB SWAP2 DUP3 AND PUSH0 SWAP1 DUP2 MSTORE PUSH1 0x5 PUSH1 0x20 SWAP1 DUP2 MSTORE PUSH1 0x40 DUP1 DUP4 KECCAK256 SWAP4 SWAP1 SWAP5 AND DUP3 MSTORE SWAP2 SWAP1 SWAP2 MSTORE KECCAK256 SLOAD SWAP1 JUMP JUMPDEST CALLVALUE DUP1 ISZERO PUSH2 0x7F5 JUMPI PUSH0 DUP1 REVERT JUMPDEST POP PUSH2 0x339 PUSH2 0x804 CALLDATASIZE PUSH1 0x4 PUSH2 0x205E JUMP JUMPDEST PUSH2 0x12C4 JUMP JUMPDEST CALLVALUE DUP1 ISZERO PUSH2 0x814 JUMPI PUSH0 DUP1 REVERT JUMPDEST POP PUSH2 0x339 PUSH2 0x133A JUMP JUMPDEST CALLVALUE DUP1 ISZERO PUSH2 0x828 JUMPI PUSH0 DUP1 REVERT JUMPDEST POP PUSH1 0x12 SLOAD PUSH2 0x30D SWAP1 PUSH1 0x1 PUSH1 0x1 PUSH1 0xA0 SHL SUB AND DUP2 JUMP JUMPDEST PUSH0 PUSH2 0x848 CALLER DUP5 DUP5 PUSH2 0x1489 JUMP JUMPDEST POP PUSH1 0x1 JUMPDEST SWAP3 SWAP2 POP POP JUMP JUMPDEST PUSH2 0x85A PUSH2 0x1596 JUMP JUMPDEST PUSH1 0x13 SLOAD PUSH1 0x1 PUSH1 0xA8 SHL SWAP1 DIV PUSH1 0xFF AND PUSH2 0x8CC JUMPI PUSH1 0x40 MLOAD PUSH3 0x461BCD PUSH1 0xE5 SHL DUP2 MSTORE PUSH1 0x20 PUSH1 0x4 DUP3 ADD MSTORE PUSH1 0x2B PUSH1 0x24 DUP3 ADD MSTORE PUSH32 0x4E6F2070656E64696E6720424C41434B48415443415420776974686472617761 PUSH1 0x44 DUP3 ADD MSTORE PUSH11 0x1B081D1BC818D85B98D95B PUSH1 0xAA SHL PUSH1 0x64 DUP3 ADD MSTORE PUSH1 0x84 ADD JUMPDEST PUSH1 0x40 MLOAD DUP1 SWAP2 SUB SWAP1 REVERT JUMPDEST PUSH1 0x13 DUP1 SLOAD PUSH1 0xFF PUSH1 0xA8 SHL NOT AND SWAP1 SSTORE JUMP JUMPDEST PUSH2 0x8E3 PUSH2 0x1596 JUMP JUMPDEST PUSH1 0x1 PUSH1 0x1 PUSH1 0xA0 SHL SUB SWAP2 SWAP1 SWAP2 AND PUSH0 SWAP1 DUP2 MSTORE PUSH1 0x6 PUSH1 0x20 MSTORE PUSH1 0x40 SWAP1 KECCAK256 DUP1 SLOAD PUSH1 0xFF NOT AND SWAP2 ISZERO ISZERO SWAP2 SWAP1 SWAP2 OR SWAP1 SSTORE JUMP JUMPDEST PUSH0 PUSH2 0x919 DUP5 DUP5 DUP5 PUSH2 0x15EF JUMP JUMPDEST POP PUSH1 0x1 SWAP4 SWAP3 POP POP POP JUMP JUMPDEST CALLER PUSH0 DUP2 DUP2 MSTORE PUSH1 0x5 PUSH1 0x20 SWAP1 DUP2 MSTORE PUSH1 0x40 DUP1 DUP4 KECCAK256 PUSH1 0x1 PUSH1 0x1 PUSH1 0xA0 SHL SUB DUP8 AND DUP5 MSTORE SWAP1 SWAP2 MSTORE DUP2 KECCAK256 SLOAD SWAP1 SWAP2 PUSH2 0x848 SWAP2 DUP6 SWAP1 PUSH2 0x959 SWAP1 DUP7 SWAP1 PUSH2 0x20D0 JUMP JUMPDEST PUSH2 0x1489 JUMP JUMPDEST PUSH2 0x966 PUSH2 0x1596 JUMP JUMPDEST PUSH0 PUSH2 0x973 PUSH1 0x12 PUSH1 0xA PUSH2 0x21C3 JUMP JUMPDEST PUSH2 0x97D SWAP1 DUP4 PUSH2 0x21CE JUMP JUMPDEST SWAP1 POP PUSH2 0x989 CALLER DUP3 PUSH2 0x16D6 JUMP JUMPDEST POP POP JUMP JUMPDEST PUSH2 0x995 PUSH2 0x1596 JUMP JUMPDEST PUSH2 0x99E PUSH0 PUSH2 0x1868 JUMP JUMPDEST JUMP JUMPDEST PUSH2 0x9A8 PUSH2 0x1596 JUMP JUMPDEST PUSH1 0x1 PUSH1 0x1 PUSH1 0xA0 SHL SUB DUP2 AND PUSH2 0xA10 JUMPI PUSH1 0x40 MLOAD PUSH3 0x461BCD PUSH1 0xE5 SHL DUP2 MSTORE PUSH1 0x20 PUSH1 0x4 DUP3 ADD MSTORE PUSH1 0x29 PUSH1 0x24 DUP3 ADD MSTORE PUSH32 0x4D61726B6574696E672072656365697665722063616E6E6F74206265207A6572 PUSH1 0x44 DUP3 ADD MSTORE PUSH9 0x6F2061646472657373 PUSH1 0xB8 SHL PUSH1 0x64 DUP3 ADD MSTORE PUSH1 0x84 ADD PUSH2 0x8C3 JUMP JUMPDEST PUSH1 0xC DUP1 SLOAD PUSH1 0x1 PUSH1 0x1 PUSH1 0xA0 SHL SUB NOT AND PUSH1 0x1 PUSH1 0x1 PUSH1 0xA0 SHL SUB DUP4 AND SWAP1 DUP2 OR SWAP1 SWAP2 SSTORE PUSH0 DUP2 DUP2 MSTORE PUSH1 0x6 PUSH1 0x20 MSTORE PUSH1 0x40 DUP1 DUP3 KECCAK256 DUP1 SLOAD PUSH1 0xFF NOT AND PUSH1 0x1 OR SWAP1 SSTORE MLOAD PUSH32 0x1A9EBC3770A8A35E7494C4635AAEDFA9F174AE61261B6E3AAC36AEFFC590CB64 SWAP2 SWAP1 LOG2 POP JUMP JUMPDEST PUSH2 0xA77 PUSH2 0x1596 JUMP JUMPDEST PUSH1 0x40 MLOAD PUSH4 0x4AA7D2F7 PUSH1 0xE1 SHL DUP2 MSTORE ADDRESS PUSH1 0x4 DUP3 ADD MSTORE CALLER PUSH1 0x24 DUP3 ADD MSTORE PUSH1 0x2 PUSH1 0x43 PUSH1 0x98 SHL ADD SWAP1 PUSH4 0x954FA5EE SWAP1 PUSH1 0x44 ADD PUSH1 0x20 PUSH1 0x40 MLOAD DUP1 DUP4 SUB DUP2 PUSH0 DUP8 GAS CALL ISZERO DUP1 ISZERO PUSH2 0xABE JUMPI RETURNDATASIZE PUSH0 DUP1 RETURNDATACOPY RETURNDATASIZE PUSH0 REVERT JUMPDEST POP POP POP POP PUSH1 0x40 MLOAD RETURNDATASIZE PUSH1 0x1F NOT PUSH1 0x1F DUP3 ADD AND DUP3 ADD DUP1 PUSH1 0x40 MSTORE POP DUP2 ADD SWAP1 PUSH2 0xAE2 SWAP2 SWAP1 PUSH2 0x21E5 JUMP JUMPDEST POP JUMP JUMPDEST PUSH2 0xAED PUSH2 0x1596 JUMP JUMPDEST ADDRESS PUSH0 SWAP1 DUP2 MSTORE PUSH1 0x4 PUSH1 0x20 MSTORE PUSH1 0x40 SWAP1 KECCAK256 SLOAD SELFBALANCE SWAP1 DUP2 ISZERO ISZERO DUP1 PUSH2 0xB0B JUMPI POP PUSH0 DUP2 GT JUMPDEST PUSH2 0xB4D JUMPI PUSH1 0x40 MLOAD PUSH3 0x461BCD PUSH1 0xE5 SHL DUP2 MSTORE PUSH1 0x20 PUSH1 0x4 DUP3 ADD MSTORE PUSH1 0x13 PUSH1 0x24 DUP3 ADD MSTORE PUSH19 0x4E6F7468696E6720746F207769746864726177 PUSH1 0x68 SHL PUSH1 0x44 DUP3 ADD MSTORE PUSH1 0x64 ADD PUSH2 0x8C3 JUMP JUMPDEST DUP2 ISZERO PUSH2 0xB8B JUMPI PUSH0 DUP1 SLOAD PUSH1 0x40 MLOAD PUSH1 0x1 PUSH1 0x1 PUSH1 0xA0 SHL SUB SWAP1 SWAP2 AND SWAP2 DUP5 ISZERO PUSH2 0x8FC MUL SWAP2 DUP6 SWAP2 DUP2 DUP2 DUP2 DUP6 DUP9 DUP9 CALL SWAP4 POP POP POP POP ISZERO DUP1 ISZERO PUSH2 0xB89 JUMPI RETURNDATASIZE PUSH0 DUP1 RETURNDATACOPY RETURNDATASIZE PUSH0 REVERT JUMPDEST POP JUMPDEST DUP1 ISZERO PUSH2 0xBAC JUMPI PUSH2 0xBAC ADDRESS PUSH2 0xBA6 PUSH0 SLOAD PUSH1 0x1 PUSH1 0x1 PUSH1 0xA0 SHL SUB AND SWAP1 JUMP JUMPDEST DUP4 PUSH2 0x18B7 JUMP JUMPDEST PUSH1 0x40 DUP1 MLOAD DUP4 DUP2 MSTORE PUSH1 0x20 DUP2 ADD DUP4 SWAP1 MSTORE CALLER SWAP2 PUSH32 0xAE7BB41990CD336548A7C61B3FFA4A8207FE5E886087C23F5739A99114BE7839 SWAP2 ADD PUSH1 0x40 MLOAD DUP1 SWAP2 SUB SWAP1 LOG2 POP POP JUMP JUMPDEST PUSH2 0xBF3 PUSH2 0x1596 JUMP JUMPDEST PUSH1 0x13 SLOAD PUSH1 0x1 PUSH1 0xA0 SHL SWAP1 DIV PUSH1 0xFF AND ISZERO PUSH2 0xC59 JUMPI PUSH1 0x40 MLOAD PUSH3 0x461BCD PUSH1 0xE5 SHL DUP2 MSTORE PUSH1 0x20 PUSH1 0x4 DUP3 ADD MSTORE PUSH1 0x24 DUP1 DUP3 ADD MSTORE PUSH32 0x416E20455448207769746864726177616C20697320616C72656164792070656E PUSH1 0x44 DUP3 ADD MSTORE PUSH4 0x64696E67 PUSH1 0xE0 SHL PUSH1 0x64 DUP3 ADD MSTORE PUSH1 0x84 ADD PUSH2 0x8C3 JUMP JUMPDEST PUSH7 0x8E1BC9BF040000 SELFBALANCE PUSH0 PUSH2 0xC6F TIMESTAMP PUSH2 0x12C PUSH2 0x20D0 JUMP JUMPDEST SWAP1 POP DUP1 TIMESTAMP LT PUSH2 0xCB8 JUMPI PUSH1 0x40 MLOAD PUSH3 0x461BCD PUSH1 0xE5 SHL DUP2 MSTORE PUSH1 0x20 PUSH1 0x4 DUP3 ADD MSTORE PUSH1 0x15 PUSH1 0x24 DUP3 ADD MSTORE PUSH21 0x151C985B9CD858DD1A5BDB881D1A5B5959081BDD5D PUSH1 0x5A SHL PUSH1 0x44 DUP3 ADD MSTORE PUSH1 0x64 ADD PUSH2 0x8C3 JUMP JUMPDEST DUP3 DUP3 GT PUSH2 0xD20 JUMPI PUSH1 0x40 MLOAD PUSH3 0x461BCD PUSH1 0xE5 SHL DUP2 MSTORE PUSH1 0x20 PUSH1 0x4 DUP3 ADD MSTORE PUSH1 0x30 PUSH1 0x24 DUP3 ADD MSTORE PUSH32 0x4E6F7420656E6F7567682045544820696E20636F6E747261637420746F207065 PUSH1 0x44 DUP3 ADD MSTORE PUSH16 0x1C999BDC9B481DDA5D1A191C985DD85B PUSH1 0x82 SHL PUSH1 0x64 DUP3 ADD MSTORE PUSH1 0x84 ADD PUSH2 0x8C3 JUMP JUMPDEST PUSH0 PUSH2 0xD2B DUP5 DUP5 PUSH2 0x21FC JUMP JUMPDEST PUSH1 0xC SLOAD PUSH1 0x40 MLOAD SWAP2 SWAP3 POP PUSH1 0x1 PUSH1 0x1 PUSH1 0xA0 SHL SUB AND SWAP1 DUP3 ISZERO PUSH2 0x8FC MUL SWAP1 DUP4 SWAP1 PUSH0 DUP2 DUP2 DUP2 DUP6 DUP9 DUP9 CALL SWAP4 POP POP POP POP ISZERO DUP1 ISZERO PUSH2 0xD63 JUMPI RETURNDATASIZE PUSH0 DUP1 RETURNDATACOPY RETURNDATASIZE PUSH0 REVERT JUMPDEST POP PUSH1 0x40 DUP1 MLOAD DUP3 DUP2 MSTORE SELFBALANCE PUSH1 0x20 DUP3 ADD MSTORE CALLER SWAP2 PUSH32 0x72A57D3D6134A77E651E2E97750615E224E690DB64DB56520C4D2D16EDD5FC9F SWAP2 ADD PUSH1 0x40 MLOAD DUP1 SWAP2 SUB SWAP1 LOG2 POP POP PUSH1 0x13 DUP1 SLOAD PUSH1 0xFF PUSH1 0xA0 SHL NOT AND PUSH1 0x1 PUSH1 0xA0 SHL OR SWAP1 SSTORE POP POP JUMP JUMPDEST PUSH2 0xDBF PUSH2 0x1596 JUMP JUMPDEST PUSH1 0x13 SLOAD PUSH1 0x1 PUSH1 0x1 PUSH1 0xA0 SHL SUB SWAP1 DUP2 AND SWAP1 DUP4 AND SUB PUSH2 0xE43 JUMPI PUSH1 0x40 MLOAD PUSH3 0x461BCD PUSH1 0xE5 SHL DUP2 MSTORE PUSH1 0x20 PUSH1 0x4 DUP3 ADD MSTORE PUSH1 0x39 PUSH1 0x24 DUP3 ADD MSTORE PUSH32 0x54686520706169722063616E6E6F742062652072656D6F7665642066726F6D20 PUSH1 0x44 DUP3 ADD MSTORE PUSH32 0x6175746F6D617465644D61726B65744D616B6572506169727300000000000000 PUSH1 0x64 DUP3 ADD MSTORE PUSH1 0x84 ADD PUSH2 0x8C3 JUMP JUMPDEST PUSH2 0x989 DUP3 DUP3 PUSH2 0x1A98 JUMP JUMPDEST CALLER PUSH0 SWAP1 DUP2 MSTORE PUSH1 0x5 PUSH1 0x20 SWAP1 DUP2 MSTORE PUSH1 0x40 DUP1 DUP4 KECCAK256 PUSH1 0x1 PUSH1 0x1 PUSH1 0xA0 SHL SUB DUP7 AND DUP5 MSTORE SWAP1 SWAP2 MSTORE DUP2 KECCAK256 SLOAD DUP3 DUP2 LT ISZERO PUSH2 0xECE JUMPI PUSH1 0x40 MLOAD PUSH3 0x461BCD PUSH1 0xE5 SHL DUP2 MSTORE PUSH1 0x20 PUSH1 0x4 DUP3 ADD MSTORE PUSH1 0x25 PUSH1 0x24 DUP3 ADD MSTORE PUSH32 0x45524332303A2064656372656173656420616C6C6F77616E63652062656C6F77 PUSH1 0x44 DUP3 ADD MSTORE PUSH5 0x207A65726F PUSH1 0xD8 SHL PUSH1 0x64 DUP3 ADD MSTORE PUSH1 0x84 ADD PUSH2 0x8C3 JUMP JUMPDEST PUSH2 0x919 CALLER DUP6 PUSH2 0x959 DUP7 DUP6 PUSH2 0x21FC JUMP JUMPDEST PUSH0 PUSH2 0xEE6 PUSH2 0x1AEB JUMP JUMPDEST PUSH2 0xEF1 CALLER DUP5 DUP5 PUSH2 0x1B44 JUMP JUMPDEST POP PUSH1 0x1 PUSH2 0x84C PUSH1 0x1 DUP1 SSTORE JUMP JUMPDEST PUSH2 0xF05 PUSH2 0x1596 JUMP JUMPDEST ADDRESS PUSH0 SWAP1 DUP2 MSTORE PUSH1 0x4 PUSH1 0x20 MSTORE PUSH1 0x40 SWAP1 KECCAK256 SLOAD PUSH2 0xAE2 DUP2 PUSH2 0x1B55 JUMP JUMPDEST PUSH2 0xF25 PUSH2 0x1596 JUMP JUMPDEST PUSH1 0x40 MLOAD PUSH4 0xC8992E61 PUSH1 0xE0 SHL DUP2 MSTORE PUSH1 0x2 PUSH1 0x43 PUSH1 0x98 SHL ADD SWAP1 PUSH4 0xC8992E61 SWAP1 PUSH2 0xF55 SWAP1 PUSH1 0x2 SWAP1 PUSH1 0x1 SWAP1 DUP7 SWAP1 PUSH1 0x4 ADD PUSH2 0x2223 JUMP JUMPDEST PUSH0 PUSH1 0x40 MLOAD DUP1 DUP4 SUB DUP2 PUSH0 DUP8 DUP1 EXTCODESIZE ISZERO DUP1 ISZERO PUSH2 0xF6C JUMPI PUSH0 DUP1 REVERT JUMPDEST POP GAS CALL ISZERO DUP1 ISZERO PUSH2 0xF7E JUMPI RETURNDATASIZE PUSH0 DUP1 RETURNDATACOPY RETURNDATASIZE PUSH0 REVERT JUMPDEST POP POP POP POP POP JUMP JUMPDEST PUSH2 0xF8D PUSH2 0x1596 JUMP JUMPDEST PUSH1 0x1 PUSH1 0x1 PUSH1 0xA0 SHL SUB DUP2 AND PUSH2 0xFFA JUMPI PUSH1 0x40 MLOAD PUSH3 0x461BCD PUSH1 0xE5 SHL DUP2 MSTORE PUSH1 0x20 PUSH1 0x4 DUP3 ADD MSTORE PUSH1 0x2E PUSH1 0x24 DUP3 ADD MSTORE PUSH32 0x424C41434B4841544341543A20526F757465722063616E6E6F74206265207468 PUSH1 0x44 DUP3 ADD MSTORE PUSH14 0x65207A65726F2061646472657373 PUSH1 0x90 SHL PUSH1 0x64 DUP3 ADD MSTORE PUSH1 0x84 ADD PUSH2 0x8C3 JUMP JUMPDEST PUSH1 0x12 SLOAD PUSH1 0x1 PUSH1 0x1 PUSH1 0xA0 SHL SUB SWAP1 DUP2 AND SWAP1 DUP3 AND SUB PUSH2 0x1072 JUMPI PUSH1 0x40 MLOAD PUSH3 0x461BCD PUSH1 0xE5 SHL DUP2 MSTORE PUSH1 0x20 PUSH1 0x4 DUP3 ADD MSTORE PUSH1 0x31 PUSH1 0x24 DUP3 ADD MSTORE PUSH32 0x424C41434B4841544341543A204E657720726F75746572206164647265737320 PUSH1 0x44 DUP3 ADD MSTORE PUSH17 0x1B5D5CDD08189948191A5999995C995B9D PUSH1 0x7A SHL PUSH1 0x64 DUP3 ADD MSTORE PUSH1 0x84 ADD PUSH2 0x8C3 JUMP JUMPDEST PUSH0 DUP2 SWAP1 POP PUSH0 DUP2 PUSH1 0x1 PUSH1 0x1 PUSH1 0xA0 SHL SUB AND PUSH4 0xC45A0155 PUSH1 0x40 MLOAD DUP2 PUSH4 0xFFFFFFFF AND PUSH1 0xE0 SHL DUP2 MSTORE PUSH1 0x4 ADD PUSH1 0x20 PUSH1 0x40 MLOAD DUP1 DUP4 SUB DUP2 DUP7 GAS STATICCALL ISZERO DUP1 ISZERO PUSH2 0x10B3 JUMPI RETURNDATASIZE PUSH0 DUP1 RETURNDATACOPY RETURNDATASIZE PUSH0 REVERT JUMPDEST POP POP POP POP PUSH1 0x40 MLOAD RETURNDATASIZE PUSH1 0x1F NOT PUSH1 0x1F DUP3 ADD AND DUP3 ADD DUP1 PUSH1 0x40 MSTORE POP DUP2 ADD SWAP1 PUSH2 0x10D7 SWAP2 SWAP1 PUSH2 0x2269 JUMP JUMPDEST PUSH1 0x1 PUSH1 0x1 PUSH1 0xA0 SHL SUB AND PUSH4 0xC9C65396 ADDRESS DUP5 PUSH1 0x1 PUSH1 0x1 PUSH1 0xA0 SHL SUB AND PUSH4 0xAD5C4648 PUSH1 0x40 MLOAD DUP2 PUSH4 0xFFFFFFFF AND PUSH1 0xE0 SHL DUP2 MSTORE PUSH1 0x4 ADD PUSH1 0x20 PUSH1 0x40 MLOAD DUP1 DUP4 SUB DUP2 DUP7 GAS STATICCALL ISZERO DUP1 ISZERO PUSH2 0x1122 JUMPI RETURNDATASIZE PUSH0 DUP1 RETURNDATACOPY RETURNDATASIZE PUSH0 REVERT JUMPDEST POP POP POP POP PUSH1 0x40 MLOAD RETURNDATASIZE PUSH1 0x1F NOT PUSH1 0x1F DUP3 ADD AND DUP3 ADD DUP1 PUSH1 0x40 MSTORE POP DUP2 ADD SWAP1 PUSH2 0x1146 SWAP2 SWAP1 PUSH2 0x2269 JUMP JUMPDEST PUSH1 0x40 MLOAD PUSH1 0x1 PUSH1 0x1 PUSH1 0xE0 SHL SUB NOT PUSH1 0xE0 DUP6 SWAP1 SHL AND DUP2 MSTORE PUSH1 0x1 PUSH1 0x1 PUSH1 0xA0 SHL SUB SWAP3 DUP4 AND PUSH1 0x4 DUP3 ADD MSTORE SWAP2 AND PUSH1 0x24 DUP3 ADD MSTORE PUSH1 0x44 ADD PUSH1 0x20 PUSH1 0x40 MLOAD DUP1 DUP4 SUB DUP2 PUSH0 DUP8 GAS CALL ISZERO DUP1 ISZERO PUSH2 0x1190 JUMPI RETURNDATASIZE PUSH0 DUP1 RETURNDATACOPY RETURNDATASIZE PUSH0 REVERT JUMPDEST POP POP POP POP PUSH1 0x40 MLOAD RETURNDATASIZE PUSH1 0x1F NOT PUSH1 0x1F DUP3 ADD AND DUP3 ADD DUP1 PUSH1 0x40 MSTORE POP DUP2 ADD SWAP1 PUSH2 0x11B4 SWAP2 SWAP1 PUSH2 0x2269 JUMP JUMPDEST PUSH1 0x12 DUP1 SLOAD PUSH1 0x1 PUSH1 0x1 PUSH1 0xA0 SHL SUB DUP1 DUP7 AND PUSH1 0x1 PUSH1 0x1 PUSH1 0xA0 SHL SUB NOT SWAP3 DUP4 AND OR SWAP1 SWAP3 SSTORE PUSH1 0x13 DUP1 SLOAD SWAP3 DUP5 AND SWAP3 SWAP1 SWAP2 AND SWAP2 SWAP1 SWAP2 OR SWAP1 SSTORE SWAP1 POP PUSH2 0x11F1 DUP2 PUSH1 0x1 PUSH2 0x1A98 JUMP JUMPDEST PUSH1 0x1 PUSH1 0x1 PUSH1 0xA0 SHL SUB DUP1 DUP3 AND PUSH0 DUP2 DUP2 MSTORE PUSH1 0x6 PUSH1 0x20 MSTORE PUSH1 0x40 DUP1 DUP3 KECCAK256 DUP1 SLOAD PUSH1 0xFF NOT AND PUSH1 0x1 OR SWAP1 SSTORE MLOAD SWAP2 SWAP3 DUP6 DUP2 AND SWAP3 SWAP1 DUP8 AND SWAP2 PUSH32 0xEB7C1E97C05570337FE795AB9D5755A8F731C9C52E756B720275940FA2833276 SWAP2 LOG4 POP POP POP JUMP JUMPDEST PUSH2 0x1250 PUSH2 0x1596 JUMP JUMPDEST PUSH1 0x13 SLOAD PUSH1 0x1 PUSH1 0xA0 SHL SWAP1 DIV PUSH1 0xFF AND PUSH2 0x12B5 JUMPI PUSH1 0x40 MLOAD PUSH3 0x461BCD PUSH1 0xE5 SHL DUP2 MSTORE PUSH1 0x20 PUSH1 0x4 DUP3 ADD MSTORE PUSH1 0x23 PUSH1 0x24 DUP3 ADD MSTORE PUSH32 0x4E6F2070656E64696E6720455448207769746864726177616C20746F2063616E PUSH1 0x44 DUP3 ADD MSTORE PUSH3 0x18D95B PUSH1 0xEA SHL PUSH1 0x64 DUP3 ADD MSTORE PUSH1 0x84 ADD PUSH2 0x8C3 JUMP JUMPDEST PUSH1 0x13 DUP1 SLOAD PUSH1 0xFF PUSH1 0xA0 SHL NOT AND SWAP1 SSTORE JUMP JUMPDEST PUSH2 0x12CC PUSH2 0x1596 JUMP JUMPDEST PUSH1 0x1 PUSH1 0x1 PUSH1 0xA0 SHL SUB DUP2 AND PUSH2 0x1331 JUMPI PUSH1 0x40 MLOAD PUSH3 0x461BCD PUSH1 0xE5 SHL DUP2 MSTORE PUSH1 0x20 PUSH1 0x4 DUP3 ADD MSTORE PUSH1 0x26 PUSH1 0x24 DUP3 ADD MSTORE PUSH32 0x4F776E61626C653A206E6577206F776E657220697320746865207A65726F2061 PUSH1 0x44 DUP3 ADD MSTORE PUSH6 0x646472657373 PUSH1 0xD0 SHL PUSH1 0x64 DUP3 ADD MSTORE PUSH1 0x84 ADD PUSH2 0x8C3 JUMP JUMPDEST PUSH2 0xAE2 DUP2 PUSH2 0x1868 JUMP JUMPDEST PUSH2 0x1342 PUSH2 0x1596 JUMP JUMPDEST PUSH1 0x13 SLOAD PUSH1 0x1 PUSH1 0xA8 SHL SWAP1 DIV PUSH1 0xFF AND ISZERO PUSH2 0x13B0 JUMPI PUSH1 0x40 MLOAD PUSH3 0x461BCD PUSH1 0xE5 SHL DUP2 MSTORE PUSH1 0x20 PUSH1 0x4 DUP3 ADD MSTORE PUSH1 0x2B PUSH1 0x24 DUP3 ADD MSTORE PUSH32 0x4120424C41434B484154434154207769746864726177616C20697320616C7265 PUSH1 0x44 DUP3 ADD MSTORE PUSH11 0x6164792070656E64696E67 PUSH1 0xA8 SHL PUSH1 0x64 DUP3 ADD MSTORE PUSH1 0x84 ADD PUSH2 0x8C3 JUMP JUMPDEST ADDRESS PUSH0 SWAP1 DUP2 MSTORE PUSH1 0x4 PUSH1 0x20 MSTORE PUSH1 0x40 SWAP1 KECCAK256 SLOAD DUP1 PUSH2 0x1404 JUMPI PUSH1 0x40 MLOAD PUSH3 0x461BCD PUSH1 0xE5 SHL DUP2 MSTORE PUSH1 0x20 PUSH1 0x4 DUP3 ADD MSTORE PUSH1 0x15 PUSH1 0x24 DUP3 ADD MSTORE PUSH21 0x2737903A37B5B2B739903A37903A3930B739B332B9 PUSH1 0x59 SHL PUSH1 0x44 DUP3 ADD MSTORE PUSH1 0x64 ADD PUSH2 0x8C3 JUMP JUMPDEST PUSH0 PUSH2 0x1411 TIMESTAMP PUSH2 0x12C PUSH2 0x20D0 JUMP JUMPDEST SWAP1 POP DUP1 TIMESTAMP LT PUSH2 0x145A JUMPI PUSH1 0x40 MLOAD PUSH3 0x461BCD PUSH1 0xE5 SHL DUP2 MSTORE PUSH1 0x20 PUSH1 0x4 DUP3 ADD MSTORE PUSH1 0x15 PUSH1 0x24 DUP3 ADD MSTORE PUSH21 0x151C985B9CD858DD1A5BDB881D1A5B5959081BDD5D PUSH1 0x5A SHL PUSH1 0x44 DUP3 ADD MSTORE PUSH1 0x64 ADD PUSH2 0x8C3 JUMP JUMPDEST PUSH1 0xC SLOAD PUSH2 0x1472 SWAP1 ADDRESS SWAP1 PUSH1 0x1 PUSH1 0x1 PUSH1 0xA0 SHL SUB AND DUP5 PUSH2 0x18B7 JUMP JUMPDEST POP POP PUSH1 0x13 DUP1 SLOAD PUSH1 0xFF PUSH1 0xA8 SHL NOT AND PUSH1 0x1 PUSH1 0xA8 SHL OR SWAP1 SSTORE JUMP JUMPDEST PUSH1 0x1 PUSH1 0x1 PUSH1 0xA0 SHL SUB DUP4 AND PUSH2 0x14DF JUMPI PUSH1 0x40 MLOAD PUSH3 0x461BCD PUSH1 0xE5 SHL DUP2 MSTORE PUSH1 0x20 PUSH1 0x4 DUP3 ADD DUP2 SWAP1 MSTORE PUSH1 0x24 DUP3 ADD MSTORE PUSH32 0x45524332303A20617070726F76652066726F6D207A65726F2061646472657373 PUSH1 0x44 DUP3 ADD MSTORE PUSH1 0x64 ADD PUSH2 0x8C3 JUMP JUMPDEST PUSH1 0x1 PUSH1 0x1 PUSH1 0xA0 SHL SUB DUP3 AND PUSH2 0x1535 JUMPI PUSH1 0x40 MLOAD PUSH3 0x461BCD PUSH1 0xE5 SHL DUP2 MSTORE PUSH1 0x20 PUSH1 0x4 DUP3 ADD MSTORE PUSH1 0x1E PUSH1 0x24 DUP3 ADD MSTORE PUSH32 0x45524332303A20617070726F766520746F207A65726F20616464726573730000 PUSH1 0x44 DUP3 ADD MSTORE PUSH1 0x64 ADD PUSH2 0x8C3 JUMP JUMPDEST PUSH1 0x1 PUSH1 0x1 PUSH1 0xA0 SHL SUB DUP4 DUP2 AND PUSH0 DUP2 DUP2 MSTORE PUSH1 0x5 PUSH1 0x20 SWAP1 DUP2 MSTORE PUSH1 0x40 DUP1 DUP4 KECCAK256 SWAP5 DUP8 AND DUP1 DUP5 MSTORE SWAP5 DUP3 MSTORE SWAP2 DUP3 SWAP1 KECCAK256 DUP6 SWAP1 SSTORE SWAP1 MLOAD DUP5 DUP2 MSTORE PUSH32 0x8C5BE1E5EBEC7D5BD14F71427D1E84F3DD0314C0F7B2291E5B200AC8C7C3B925 SWAP2 ADD JUMPDEST PUSH1 0x40 MLOAD DUP1 SWAP2 SUB SWAP1 LOG3 POP POP POP JUMP JUMPDEST PUSH0 SLOAD PUSH1 0x1 PUSH1 0x1 PUSH1 0xA0 SHL SUB AND CALLER EQ PUSH2 0x99E JUMPI PUSH1 0x40 MLOAD PUSH3 0x461BCD PUSH1 0xE5 SHL DUP2 MSTORE PUSH1 0x20 PUSH1 0x4 DUP3 ADD DUP2 SWAP1 MSTORE PUSH1 0x24 DUP3 ADD MSTORE PUSH32 0x4F776E61626C653A2063616C6C6572206973206E6F7420746865206F776E6572 PUSH1 0x44 DUP3 ADD MSTORE PUSH1 0x64 ADD PUSH2 0x8C3 JUMP JUMPDEST PUSH1 0x1 PUSH1 0x1 PUSH1 0xA0 SHL SUB DUP4 AND PUSH0 SWAP1 DUP2 MSTORE PUSH1 0x5 PUSH1 0x20 SWAP1 DUP2 MSTORE PUSH1 0x40 DUP1 DUP4 KECCAK256 CALLER DUP5 MSTORE SWAP1 SWAP2 MSTORE SWAP1 KECCAK256 SLOAD DUP2 GT ISZERO PUSH2 0x1672 JUMPI PUSH1 0x40 MLOAD PUSH3 0x461BCD PUSH1 0xE5 SHL DUP2 MSTORE PUSH1 0x20 PUSH1 0x4 DUP3 ADD MSTORE PUSH1 0x28 PUSH1 0x24 DUP3 ADD MSTORE PUSH32 0x45524332303A207472616E7366657220616D6F756E7420657863656564732061 PUSH1 0x44 DUP3 ADD MSTORE PUSH8 0x6C6C6F77616E6365 PUSH1 0xC0 SHL PUSH1 0x64 DUP3 ADD MSTORE PUSH1 0x84 ADD PUSH2 0x8C3 JUMP JUMPDEST PUSH2 0x167D DUP4 DUP4 DUP4 PUSH2 0x1B44 JUMP JUMPDEST PUSH1 0x1 PUSH1 0x1 PUSH1 0xA0 SHL SUB DUP4 AND PUSH0 SWAP1 DUP2 MSTORE PUSH1 0x5 PUSH1 0x20 SWAP1 DUP2 MSTORE PUSH1 0x40 DUP1 DUP4 KECCAK256 CALLER DUP5 MSTORE SWAP1 SWAP2 MSTORE SWAP1 KECCAK256 SLOAD PUSH2 0x16AB SWAP1 DUP3 SWAP1 PUSH2 0x21FC JUMP JUMPDEST PUSH1 0x1 PUSH1 0x1 PUSH1 0xA0 SHL SUB SWAP1 SWAP4 AND PUSH0 SWAP1 DUP2 MSTORE PUSH1 0x5 PUSH1 0x20 SWAP1 DUP2 MSTORE PUSH1 0x40 DUP1 DUP4 KECCAK256 CALLER DUP5 MSTORE SWAP1 SWAP2 MSTORE SWAP1 KECCAK256 SWAP3 SWAP1 SWAP3 SSTORE POP POP JUMP JUMPDEST PUSH1 0x1 PUSH1 0x1 PUSH1 0xA0 SHL SUB DUP3 AND PUSH2 0x1736 JUMPI PUSH1 0x40 MLOAD PUSH3 0x461BCD PUSH1 0xE5 SHL DUP2 MSTORE PUSH1 0x20 PUSH1 0x4 DUP3 ADD MSTORE PUSH1 0x21 PUSH1 0x24 DUP3 ADD MSTORE PUSH32 0x43616E6E6F74206275726E2066726F6D20746865207A65726F20616464726573 PUSH1 0x44 DUP3 ADD MSTORE PUSH1 0x73 PUSH1 0xF8 SHL PUSH1 0x64 DUP3 ADD MSTORE PUSH1 0x84 ADD PUSH2 0x8C3 JUMP JUMPDEST PUSH1 0x1 PUSH1 0x1 PUSH1 0xA0 SHL SUB DUP3 AND PUSH0 SWAP1 DUP2 MSTORE PUSH1 0x4 PUSH1 0x20 MSTORE PUSH1 0x40 SWAP1 KECCAK256 SLOAD DUP2 GT ISZERO PUSH2 0x179D JUMPI PUSH1 0x40 MLOAD PUSH3 0x461BCD PUSH1 0xE5 SHL DUP2 MSTORE PUSH1 0x20 PUSH1 0x4 DUP3 ADD MSTORE PUSH1 0x1C PUSH1 0x24 DUP3 ADD MSTORE PUSH32 0x496E73756666696369656E742062616C616E636520746F206275726E00000000 PUSH1 0x44 DUP3 ADD MSTORE PUSH1 0x64 ADD PUSH2 0x8C3 JUMP JUMPDEST PUSH1 0x1 PUSH1 0x1 PUSH1 0xA0 SHL SUB DUP3 AND PUSH0 SWAP1 DUP2 MSTORE PUSH1 0x4 PUSH1 0x20 MSTORE PUSH1 0x40 DUP2 KECCAK256 DUP1 SLOAD DUP4 SWAP3 SWAP1 PUSH2 0x17C4 SWAP1 DUP5 SWAP1 PUSH2 0x21FC JUMP JUMPDEST SWAP3 POP POP DUP2 SWAP1 SSTORE POP DUP1 PUSH1 0x2 PUSH0 DUP3 DUP3 SLOAD PUSH2 0x17DC SWAP2 SWAP1 PUSH2 0x21FC JUMP JUMPDEST SWAP1 SWAP2 SSTORE POP POP PUSH1 0x40 MLOAD DUP2 DUP2 MSTORE PUSH1 0x1 PUSH1 0x1 PUSH1 0xA0 SHL SUB DUP4 AND SWAP1 PUSH32 0xCC16F5DBB4873280815C1EE09DBD06736CFFCC184412CF7A71A0FDB75D397CA5 SWAP1 PUSH1 0x20 ADD PUSH1 0x40 MLOAD DUP1 SWAP2 SUB SWAP1 LOG2 PUSH1 0xD SLOAD PUSH1 0x40 MLOAD DUP3 DUP2 MSTORE PUSH1 0x1 PUSH1 0x1 PUSH1 0xA0 SHL SUB SWAP2 DUP3 AND SWAP2 DUP5 AND SWAP1 PUSH32 0xDDF252AD1BE2C89B69C2B068FC378DAA952BA7F163C4A11628F55A4DF523B3EF SWAP1 PUSH1 0x20 ADD PUSH1 0x40 MLOAD DUP1 SWAP2 SUB SWAP1 LOG3 POP POP JUMP JUMPDEST PUSH0 DUP1 SLOAD PUSH1 0x1 PUSH1 0x1 PUSH1 0xA0 SHL SUB DUP4 DUP2 AND PUSH1 0x1 PUSH1 0x1 PUSH1 0xA0 SHL SUB NOT DUP4 AND DUP2 OR DUP5 SSTORE PUSH1 0x40 MLOAD SWAP2 SWAP1 SWAP3 AND SWAP3 DUP4 SWAP2 PUSH32 0x8BE0079C531659141344CD1FD0A4F28419497F9722A3DAAFE3B4186F6B6457E0 SWAP2 SWAP1 LOG3 POP POP JUMP JUMPDEST PUSH1 0x1 PUSH1 0x1 PUSH1 0xA0 SHL SUB DUP4 AND PUSH2 0x191B JUMPI PUSH1 0x40 MLOAD PUSH3 0x461BCD PUSH1 0xE5 SHL DUP2 MSTORE PUSH1 0x20 PUSH1 0x4 DUP3 ADD MSTORE PUSH1 0x25 PUSH1 0x24 DUP3 ADD MSTORE PUSH32 0x45524332303A207472616E736665722066726F6D20746865207A65726F206164 PUSH1 0x44 DUP3 ADD MSTORE PUSH5 0x6472657373 PUSH1 0xD8 SHL PUSH1 0x64 DUP3 ADD MSTORE PUSH1 0x84 ADD PUSH2 0x8C3 JUMP JUMPDEST PUSH1 0x1 PUSH1 0x1 PUSH1 0xA0 SHL SUB DUP3 AND PUSH2 0x197D JUMPI PUSH1 0x40 MLOAD PUSH3 0x461BCD PUSH1 0xE5 SHL DUP2 MSTORE PUSH1 0x20 PUSH1 0x4 DUP3 ADD MSTORE PUSH1 0x23 PUSH1 0x24 DUP3 ADD MSTORE PUSH32 0x45524332303A207472616E7366657220746F20746865207A65726F2061646472 PUSH1 0x44 DUP3 ADD MSTORE PUSH3 0x657373 PUSH1 0xE8 SHL PUSH1 0x64 DUP3 ADD MSTORE PUSH1 0x84 ADD PUSH2 0x8C3 JUMP JUMPDEST PUSH1 0x1 PUSH1 0x1 PUSH1 0xA0 SHL SUB DUP4 AND PUSH0 SWAP1 DUP2 MSTORE PUSH1 0x4 PUSH1 0x20 MSTORE PUSH1 0x40 SWAP1 KECCAK256 SLOAD DUP2 GT ISZERO PUSH2 0x19F3 JUMPI PUSH1 0x40 MLOAD PUSH3 0x461BCD PUSH1 0xE5 SHL DUP2 MSTORE PUSH1 0x20 PUSH1 0x4 DUP3 ADD MSTORE PUSH1 0x26 PUSH1 0x24 DUP3 ADD MSTORE PUSH32 0x45524332303A207472616E7366657220616D6F756E7420657863656564732062 PUSH1 0x44 DUP3 ADD MSTORE PUSH6 0x616C616E6365 PUSH1 0xD0 SHL PUSH1 0x64 DUP3 ADD MSTORE PUSH1 0x84 ADD PUSH2 0x8C3 JUMP JUMPDEST PUSH1 0x1 PUSH1 0x1 PUSH1 0xA0 SHL SUB DUP4 AND PUSH0 SWAP1 DUP2 MSTORE PUSH1 0x4 PUSH1 0x20 MSTORE PUSH1 0x40 SWAP1 KECCAK256 SLOAD PUSH2 0x1A16 SWAP1 DUP3 SWAP1 PUSH2 0x21FC JUMP JUMPDEST PUSH1 0x1 PUSH1 0x1 PUSH1 0xA0 SHL SUB DUP1 DUP6 AND PUSH0 SWAP1 DUP2 MSTORE PUSH1 0x4 PUSH1 0x20 MSTORE PUSH1 0x40 DUP1 DUP3 KECCAK256 SWAP4 SWAP1 SWAP4 SSTORE SWAP1 DUP5 AND DUP2 MSTORE KECCAK256 SLOAD PUSH2 0x1A45 SWAP1 DUP3 SWAP1 PUSH2 0x20D0 JUMP JUMPDEST PUSH1 0x1 PUSH1 0x1 PUSH1 0xA0 SHL SUB DUP1 DUP5 AND PUSH0 DUP2 DUP2 MSTORE PUSH1 0x4 PUSH1 0x20 MSTORE PUSH1 0x40 SWAP1 DUP2 SWAP1 KECCAK256 SWAP4 SWAP1 SWAP4 SSTORE SWAP2 MLOAD SWAP1 DUP6 AND SWAP1 PUSH32 0xDDF252AD1BE2C89B69C2B068FC378DAA952BA7F163C4A11628F55A4DF523B3EF SWAP1 PUSH2 0x1589 SWAP1 DUP6 DUP2 MSTORE PUSH1 0x20 ADD SWAP1 JUMP JUMPDEST PUSH1 0x1 PUSH1 0x1 PUSH1 0xA0 SHL SUB DUP3 AND PUSH0 DUP2 DUP2 MSTORE PUSH1 0x7 PUSH1 0x20 MSTORE PUSH1 0x40 DUP1 DUP3 KECCAK256 DUP1 SLOAD PUSH1 0xFF NOT AND DUP6 ISZERO ISZERO SWAP1 DUP2 OR SWAP1 SWAP2 SSTORE SWAP1 MLOAD SWAP1 SWAP3 SWAP2 PUSH32 0xFFA9187BF1F18BF477BD0EA1BCBB64E93B6A98132473929EDFCE215CD9B16FAB SWAP2 LOG3 POP POP JUMP JUMPDEST PUSH1 0x2 PUSH1 0x1 SLOAD SUB PUSH2 0x1B3D JUMPI PUSH1 0x40 MLOAD PUSH3 0x461BCD PUSH1 0xE5 SHL DUP2 MSTORE PUSH1 0x20 PUSH1 0x4 DUP3 ADD MSTORE PUSH1 0x1F PUSH1 0x24 DUP3 ADD MSTORE PUSH32 0x5265656E7472616E637947756172643A207265656E7472616E742063616C6C00 PUSH1 0x44 DUP3 ADD MSTORE PUSH1 0x64 ADD PUSH2 0x8C3 JUMP JUMPDEST PUSH1 0x2 PUSH1 0x1 SSTORE JUMP JUMPDEST PUSH2 0x1B4F DUP4 DUP4 DUP4 PUSH2 0x1CA5 JUMP JUMPDEST POP POP POP POP JUMP JUMPDEST PUSH1 0x40 DUP1 MLOAD PUSH1 0x2 DUP1 DUP3 MSTORE PUSH1 0x60 DUP3 ADD DUP4 MSTORE PUSH0 SWAP3 PUSH1 0x20 DUP4 ADD SWAP1 DUP1 CALLDATASIZE DUP4 CALLDATACOPY ADD SWAP1 POP POP SWAP1 POP ADDRESS DUP2 PUSH0 DUP2 MLOAD DUP2 LT PUSH2 0x1B88 JUMPI PUSH2 0x1B88 PUSH2 0x2284 JUMP JUMPDEST PUSH1 0x1 PUSH1 0x1 PUSH1 0xA0 SHL SUB SWAP3 DUP4 AND PUSH1 0x20 SWAP2 DUP3 MUL SWAP3 SWAP1 SWAP3 ADD DUP2 ADD SWAP2 SWAP1 SWAP2 MSTORE PUSH1 0x12 SLOAD PUSH1 0x40 DUP1 MLOAD PUSH4 0x15AB88C9 PUSH1 0xE3 SHL DUP2 MSTORE SWAP1 MLOAD SWAP2 SWAP1 SWAP4 AND SWAP3 PUSH4 0xAD5C4648 SWAP3 PUSH1 0x4 DUP1 DUP4 ADD SWAP4 SWAP2 SWAP3 DUP3 SWAP1 SUB ADD DUP2 DUP7 GAS STATICCALL ISZERO DUP1 ISZERO PUSH2 0x1BDF JUMPI RETURNDATASIZE PUSH0 DUP1 RETURNDATACOPY RETURNDATASIZE PUSH0 REVERT JUMPDEST POP POP POP POP PUSH1 0x40 MLOAD RETURNDATASIZE PUSH1 0x1F NOT PUSH1 0x1F DUP3 ADD AND DUP3 ADD DUP1 PUSH1 0x40 MSTORE POP DUP2 ADD SWAP1 PUSH2 0x1C03 SWAP2 SWAP1 PUSH2 0x2269 JUMP JUMPDEST DUP2 PUSH1 0x1 DUP2 MLOAD DUP2 LT PUSH2 0x1C16 JUMPI PUSH2 0x1C16 PUSH2 0x2284 JUMP JUMPDEST PUSH1 0x1 PUSH1 0x1 PUSH1 0xA0 SHL SUB SWAP3 DUP4 AND PUSH1 0x20 SWAP2 DUP3 MUL SWAP3 SWAP1 SWAP3 ADD ADD MSTORE PUSH1 0x12 SLOAD PUSH2 0x1C3C SWAP2 ADDRESS SWAP2 AND DUP5 PUSH2 0x1489 JUMP JUMPDEST PUSH1 0x12 SLOAD PUSH1 0x40 MLOAD PUSH4 0x791AC947 PUSH1 0xE0 SHL DUP2 MSTORE PUSH1 0x1 PUSH1 0x1 PUSH1 0xA0 SHL SUB SWAP1 SWAP2 AND SWAP1 PUSH4 0x791AC947 SWAP1 PUSH2 0x1C74 SWAP1 DUP6 SWAP1 PUSH0 SWAP1 DUP7 SWAP1 ADDRESS SWAP1 TIMESTAMP SWAP1 PUSH1 0x4 ADD PUSH2 0x2298 JUMP JUMPDEST PUSH0 PUSH1 0x40 MLOAD DUP1 DUP4 SUB DUP2 PUSH0 DUP8 DUP1 EXTCODESIZE ISZERO DUP1 ISZERO PUSH2 0x1C8B JUMPI PUSH0 DUP1 REVERT JUMPDEST POP GAS CALL ISZERO DUP1 ISZERO PUSH2 0x1C9D JUMPI RETURNDATASIZE PUSH0 DUP1 RETURNDATACOPY RETURNDATASIZE PUSH0 REVERT JUMPDEST POP POP POP POP POP POP JUMP JUMPDEST PUSH1 0x1 PUSH1 0x1 PUSH1 0xA0 SHL SUB DUP4 AND PUSH0 SWAP1 DUP2 MSTORE PUSH1 0x6 PUSH1 0x20 MSTORE PUSH1 0x40 DUP2 KECCAK256 SLOAD DUP2 SWAP1 PUSH1 0xFF AND ISZERO DUP1 ISZERO PUSH2 0x1CE7 JUMPI POP PUSH1 0x1 PUSH1 0x1 PUSH1 0xA0 SHL SUB DUP5 AND PUSH0 SWAP1 DUP2 MSTORE PUSH1 0x6 PUSH1 0x20 MSTORE PUSH1 0x40 SWAP1 KECCAK256 SLOAD PUSH1 0xFF AND ISZERO JUMPDEST ISZERO PUSH2 0x1D2C JUMPI PUSH2 0x1CF6 DUP6 DUP6 PUSH2 0x1DD7 JUMP JUMPDEST ISZERO PUSH2 0x1D0E JUMPI PUSH2 0x1D07 DUP4 PUSH1 0xA SLOAD PUSH2 0x1E36 JUMP JUMPDEST SWAP1 POP PUSH2 0x1D2C JUMP JUMPDEST PUSH2 0x1D18 DUP6 DUP6 PUSH2 0x1EC8 JUMP JUMPDEST ISZERO PUSH2 0x1D2C JUMPI PUSH2 0x1D29 DUP4 PUSH1 0xB SLOAD PUSH2 0x1E36 JUMP JUMPDEST SWAP1 POP JUMPDEST DUP1 ISZERO PUSH2 0x1D7C JUMPI PUSH2 0x1D3D DUP6 ADDRESS DUP4 PUSH2 0x18B7 JUMP JUMPDEST PUSH1 0x1 PUSH1 0x1 PUSH1 0xA0 SHL SUB DUP6 AND PUSH0 SWAP1 DUP2 MSTORE PUSH1 0x7 PUSH1 0x20 MSTORE PUSH1 0x40 SWAP1 KECCAK256 SLOAD PUSH1 0xFF AND PUSH2 0x1D7C JUMPI PUSH2 0x1D65 DUP2 PUSH2 0x1B55 JUMP JUMPDEST PUSH1 0x3 SLOAD SELFBALANCE SWAP1 DUP2 GT ISZERO PUSH2 0x1D7A JUMPI PUSH2 0x1D7A DUP2 PUSH2 0x1F25 JUMP JUMPDEST POP JUMPDEST PUSH0 PUSH2 0x1D87 DUP3 DUP6 PUSH2 0x21FC JUMP JUMPDEST PUSH1 0x40 DUP1 MLOAD DUP5 DUP2 MSTORE PUSH1 0x20 DUP2 ADD DUP4 SWAP1 MSTORE SWAP2 SWAP3 POP PUSH32 0x667F096CC04F4AF8B2901C952650EA69FE7E4A5C5914F7DEE3FE25230327BB40 SWAP2 ADD PUSH1 0x40 MLOAD DUP1 SWAP2 SUB SWAP1 LOG1 PUSH2 0x1DCE DUP7 DUP7 DUP4 PUSH2 0x18B7 JUMP JUMPDEST SWAP6 SWAP5 POP POP POP POP POP JUMP JUMPDEST PUSH1 0x1 PUSH1 0x1 PUSH1 0xA0 SHL SUB DUP3 AND PUSH0 SWAP1 DUP2 MSTORE PUSH1 0x7 PUSH1 0x20 MSTORE PUSH1 0x40 DUP2 KECCAK256 SLOAD PUSH1 0xFF AND ISZERO DUP1 ISZERO PUSH2 0x1E16 JUMPI POP PUSH1 0x1 PUSH1 0x1 PUSH1 0xA0 SHL SUB DUP3 AND PUSH0 SWAP1 DUP2 MSTORE PUSH1 0x7 PUSH1 0x20 MSTORE PUSH1 0x40 SWAP1 KECCAK256 SLOAD PUSH1 0xFF AND JUMPDEST DUP1 ISZERO PUSH2 0x1E2F JUMPI POP PUSH0 SLOAD PUSH1 0x1 PUSH1 0x1 PUSH1 0xA0 SHL SUB DUP5 DUP2 AND SWAP2 AND EQ ISZERO JUMPDEST SWAP4 SWAP3 POP POP POP JUMP JUMPDEST PUSH0 PUSH2 0x1E42 DUP3 PUSH0 NOT PUSH2 0x2307 JUMP JUMPDEST DUP4 GT ISZERO PUSH2 0x1EA7 JUMPI PUSH1 0x40 MLOAD PUSH3 0x461BCD PUSH1 0xE5 SHL DUP2 MSTORE PUSH1 0x20 PUSH1 0x4 DUP3 ADD MSTORE PUSH1 0x2D PUSH1 0x24 DUP3 ADD MSTORE PUSH32 0x45524332303A2061726974686D65746963206F766572666C6F7720696E206665 PUSH1 0x44 DUP3 ADD MSTORE PUSH13 0x329031B0B631BAB630BA34B7B7 PUSH1 0x99 SHL PUSH1 0x64 DUP3 ADD MSTORE PUSH1 0x84 ADD PUSH2 0x8C3 JUMP JUMPDEST PUSH1 0x9 SLOAD PUSH0 SWAP1 PUSH2 0x1EB6 DUP5 DUP7 PUSH2 0x21CE JUMP JUMPDEST PUSH2 0x1EC0 SWAP2 SWAP1 PUSH2 0x2307 JUMP JUMPDEST SWAP5 SWAP4 POP POP POP POP JUMP JUMPDEST PUSH1 0x1 PUSH1 0x1 PUSH1 0xA0 SHL SUB DUP3 AND PUSH0 SWAP1 DUP2 MSTORE PUSH1 0x7 PUSH1 0x20 MSTORE PUSH1 0x40 DUP2 KECCAK256 SLOAD PUSH1 0xFF AND DUP1 ISZERO PUSH2 0x1F07 JUMPI POP PUSH1 0x1 PUSH1 0x1 PUSH1 0xA0 SHL SUB DUP3 AND PUSH0 SWAP1 DUP2 MSTORE PUSH1 0x7 PUSH1 0x20 MSTORE PUSH1 0x40 SWAP1 KECCAK256 SLOAD PUSH1 0xFF AND ISZERO JUMPDEST DUP1 ISZERO PUSH2 0x1E2F JUMPI POP POP PUSH0 SLOAD PUSH1 0x1 PUSH1 0x1 PUSH1 0xA0 SHL SUB SWAP2 DUP3 AND SWAP2 AND EQ ISZERO SWAP2 SWAP1 POP JUMP JUMPDEST PUSH1 0xC SLOAD PUSH1 0x40 MLOAD PUSH1 0x1 PUSH1 0x1 PUSH1 0xA0 SHL SUB SWAP1 SWAP2 AND SWAP1 DUP3 ISZERO PUSH2 0x8FC MUL SWAP1 DUP4 SWAP1 PUSH0 DUP2 DUP2 DUP2 DUP6 DUP9 DUP9 CALL SWAP4 POP POP POP POP ISZERO DUP1 ISZERO PUSH2 0x989 JUMPI RETURNDATASIZE PUSH0 DUP1 RETURNDATACOPY RETURNDATASIZE PUSH0 REVERT JUMPDEST PUSH0 PUSH1 0x20 DUP1 DUP4 MSTORE DUP4 MLOAD DUP1 DUP3 DUP6 ADD MSTORE PUSH0 JUMPDEST DUP2 DUP2 LT ISZERO PUSH2 0x1F87 JUMPI DUP6 DUP2 ADD DUP4 ADD MLOAD DUP6 DUP3 ADD PUSH1 0x40 ADD MSTORE DUP3 ADD PUSH2 0x1F6B JUMP JUMPDEST POP PUSH0 PUSH1 0x40 DUP3 DUP7 ADD ADD MSTORE PUSH1 0x40 PUSH1 0x1F NOT PUSH1 0x1F DUP4 ADD AND DUP6 ADD ADD SWAP3 POP POP POP SWAP3 SWAP2 POP POP JUMP JUMPDEST PUSH1 0x1 PUSH1 0x1 PUSH1 0xA0 SHL SUB DUP2 AND DUP2 EQ PUSH2 0xAE2 JUMPI PUSH0 DUP1 REVERT JUMPDEST PUSH0 DUP1 PUSH1 0x40 DUP4 DUP6 SUB SLT ISZERO PUSH2 0x1FCC JUMPI PUSH0 DUP1 REVERT JUMPDEST DUP3 CALLDATALOAD PUSH2 0x1FD7 DUP2 PUSH2 0x1FA7 JUMP JUMPDEST SWAP5 PUSH1 0x20 SWAP4 SWAP1 SWAP4 ADD CALLDATALOAD SWAP4 POP POP POP JUMP JUMPDEST PUSH0 DUP1 PUSH1 0x40 DUP4 DUP6 SUB SLT ISZERO PUSH2 0x1FF6 JUMPI PUSH0 DUP1 REVERT JUMPDEST DUP3 CALLDATALOAD PUSH2 0x2001 DUP2 PUSH2 0x1FA7 JUMP JUMPDEST SWAP2 POP PUSH1 0x20 DUP4 ADD CALLDATALOAD DUP1 ISZERO ISZERO DUP2 EQ PUSH2 0x2015 JUMPI PUSH0 DUP1 REVERT JUMPDEST DUP1 SWAP2 POP POP SWAP3 POP SWAP3 SWAP1 POP JUMP JUMPDEST PUSH0 DUP1 PUSH0 PUSH1 0x60 DUP5 DUP7 SUB SLT ISZERO PUSH2 0x2032 JUMPI PUSH0 DUP1 REVERT JUMPDEST DUP4 CALLDATALOAD PUSH2 0x203D DUP2 PUSH2 0x1FA7 JUMP JUMPDEST SWAP3 POP PUSH1 0x20 DUP5 ADD CALLDATALOAD PUSH2 0x204D DUP2 PUSH2 0x1FA7 JUMP JUMPDEST SWAP3 SWAP6 SWAP3 SWAP5 POP POP POP PUSH1 0x40 SWAP2 SWAP1 SWAP2 ADD CALLDATALOAD SWAP1 JUMP JUMPDEST PUSH0 PUSH1 0x20 DUP3 DUP5 SUB SLT ISZERO PUSH2 0x206E JUMPI PUSH0 DUP1 REVERT JUMPDEST DUP2 CALLDATALOAD PUSH2 0x1E2F DUP2 PUSH2 0x1FA7 JUMP JUMPDEST PUSH0 PUSH1 0x20 DUP3 DUP5 SUB SLT ISZERO PUSH2 0x2089 JUMPI PUSH0 DUP1 REVERT JUMPDEST POP CALLDATALOAD SWAP2 SWAP1 POP JUMP JUMPDEST PUSH0 DUP1 PUSH1 0x40 DUP4 DUP6 SUB SLT ISZERO PUSH2 0x20A1 JUMPI PUSH0 DUP1 REVERT JUMPDEST DUP3 CALLDATALOAD PUSH2 0x20AC DUP2 PUSH2 0x1FA7 JUMP JUMPDEST SWAP2 POP PUSH1 0x20 DUP4 ADD CALLDATALOAD PUSH2 0x2015 DUP2 PUSH2 0x1FA7 JUMP JUMPDEST PUSH4 0x4E487B71 PUSH1 0xE0 SHL PUSH0 MSTORE PUSH1 0x11 PUSH1 0x4 MSTORE PUSH1 0x24 PUSH0 REVERT JUMPDEST DUP1 DUP3 ADD DUP1 DUP3 GT ISZERO PUSH2 0x84C JUMPI PUSH2 0x84C PUSH2 0x20BC JUMP JUMPDEST PUSH1 0x1 DUP2 DUP2 JUMPDEST DUP1 DUP6 GT ISZERO PUSH2 0x211D JUMPI DUP2 PUSH0 NOT DIV DUP3 GT ISZERO PUSH2 0x2103 JUMPI PUSH2 0x2103 PUSH2 0x20BC JUMP JUMPDEST DUP1 DUP6 AND ISZERO PUSH2 0x2110 JUMPI SWAP2 DUP2 MUL SWAP2 JUMPDEST SWAP4 DUP5 SHR SWAP4 SWAP1 DUP1 MUL SWAP1 PUSH2 0x20E8 JUMP JUMPDEST POP SWAP3 POP SWAP3 SWAP1 POP JUMP JUMPDEST PUSH0 DUP3 PUSH2 0x2133 JUMPI POP PUSH1 0x1 PUSH2 0x84C JUMP JUMPDEST DUP2 PUSH2 0x213F JUMPI POP PUSH0 PUSH2 0x84C JUMP JUMPDEST DUP2 PUSH1 0x1 DUP2 EQ PUSH2 0x2155 JUMPI PUSH1 0x2 DUP2 EQ PUSH2 0x215F JUMPI PUSH2 0x217B JUMP JUMPDEST PUSH1 0x1 SWAP2 POP POP PUSH2 0x84C JUMP JUMPDEST PUSH1 0xFF DUP5 GT ISZERO PUSH2 0x2170 JUMPI PUSH2 0x2170 PUSH2 0x20BC JUMP JUMPDEST POP POP PUSH1 0x1 DUP3 SHL PUSH2 0x84C JUMP JUMPDEST POP PUSH1 0x20 DUP4 LT PUSH2 0x133 DUP4 LT AND PUSH1 0x4E DUP5 LT PUSH1 0xB DUP5 LT AND OR ISZERO PUSH2 0x219E JUMPI POP DUP2 DUP2 EXP PUSH2 0x84C JUMP JUMPDEST PUSH2 0x21A8 DUP4 DUP4 PUSH2 0x20E3 JUMP JUMPDEST DUP1 PUSH0 NOT DIV DUP3 GT ISZERO PUSH2 0x21BB JUMPI PUSH2 0x21BB PUSH2 0x20BC JUMP JUMPDEST MUL SWAP4 SWAP3 POP POP POP JUMP JUMPDEST PUSH0 PUSH2 0x1E2F DUP4 DUP4 PUSH2 0x2125 JUMP JUMPDEST DUP1 DUP3 MUL DUP2 ISZERO DUP3 DUP3 DIV DUP5 EQ OR PUSH2 0x84C JUMPI PUSH2 0x84C PUSH2 0x20BC JUMP JUMPDEST PUSH0 PUSH1 0x20 DUP3 DUP5 SUB SLT ISZERO PUSH2 0x21F5 JUMPI PUSH0 DUP1 REVERT JUMPDEST POP MLOAD SWAP2 SWAP1 POP JUMP JUMPDEST DUP2 DUP2 SUB DUP2 DUP2 GT ISZERO PUSH2 0x84C JUMPI PUSH2 0x84C PUSH2 0x20BC JUMP JUMPDEST PUSH4 0x4E487B71 PUSH1 0xE0 SHL PUSH0 MSTORE PUSH1 0x21 PUSH1 0x4 MSTORE PUSH1 0x24 PUSH0 REVERT JUMPDEST PUSH1 0x60 DUP2 ADD PUSH1 0x3 DUP6 LT PUSH2 0x2237 JUMPI PUSH2 0x2237 PUSH2 0x220F JUMP JUMPDEST DUP5 DUP3 MSTORE PUSH1 0x2 DUP5 LT PUSH2 0x224A JUMPI PUSH2 0x224A PUSH2 0x220F JUMP JUMPDEST PUSH1 0x20 DUP3 ADD SWAP4 SWAP1 SWAP4 MSTORE PUSH1 0x1 PUSH1 0x1 PUSH1 0xA0 SHL SUB SWAP2 SWAP1 SWAP2 AND PUSH1 0x40 SWAP1 SWAP2 ADD MSTORE SWAP2 SWAP1 POP JUMP JUMPDEST PUSH0 PUSH1 0x20 DUP3 DUP5 SUB SLT ISZERO PUSH2 0x2279 JUMPI PUSH0 DUP1 REVERT JUMPDEST DUP2 MLOAD PUSH2 0x1E2F DUP2 PUSH2 0x1FA7 JUMP JUMPDEST PUSH4 0x4E487B71 PUSH1 0xE0 SHL PUSH0 MSTORE PUSH1 0x32 PUSH1 0x4 MSTORE PUSH1 0x24 PUSH0 REVERT JUMPDEST PUSH0 PUSH1 0xA0 DUP3 ADD DUP8 DUP4 MSTORE PUSH1 0x20 DUP8 DUP2 DUP6 ADD MSTORE PUSH1 0xA0 PUSH1 0x40 DUP6 ADD MSTORE DUP2 DUP8 MLOAD DUP1 DUP5 MSTORE PUSH1 0xC0 DUP7 ADD SWAP2 POP DUP3 DUP10 ADD SWAP4 POP PUSH0 JUMPDEST DUP2 DUP2 LT ISZERO PUSH2 0x22E6 JUMPI DUP5 MLOAD PUSH1 0x1 PUSH1 0x1 PUSH1 0xA0 SHL SUB AND DUP4 MSTORE SWAP4 DUP4 ADD SWAP4 SWAP2 DUP4 ADD SWAP2 PUSH1 0x1 ADD PUSH2 0x22C1 JUMP JUMPDEST POP POP PUSH1 0x1 PUSH1 0x1 PUSH1 0xA0 SHL SUB SWAP7 SWAP1 SWAP7 AND PUSH1 0x60 DUP6 ADD MSTORE POP POP POP PUSH1 0x80 ADD MSTORE SWAP4 SWAP3 POP POP POP JUMP JUMPDEST PUSH0 DUP3 PUSH2 0x2321 JUMPI PUSH4 0x4E487B71 PUSH1 0xE0 SHL PUSH0 MSTORE PUSH1 0x12 PUSH1 0x4 MSTORE PUSH1 0x24 PUSH0 REVERT JUMPDEST POP DIV SWAP1 JUMP INVALID LOG2 PUSH5 0x6970667358 0x22 SLT KECCAK256 BASEFEE CALLCODE NUMBER 0xC6 MUL 0xC4 0xE0 RETURN DUP16 EXTCODEHASH PUSH26 0x228D217D652E9E01671CD20E86647C0AF54033DBB564736F6C63 NUMBER STOP ADDMOD ISZERO STOP CALLER "},"methodIdentifiers":{"BLAST()":"97d75776","MAX_OWNERSHIP()":"5a7ba18f","allowance(address,address)":"dd62ed3e","approve(address,uint256)":"095ea7b3","automatedMarketMakerPairs(address)":"b62496f5","balanceOf(address)":"70a08231","burn(uint256)":"42966c68","buyFee()":"47062402","cancelBLACKHATCATWithdrawal()":"136f84d3","cancelETHWithdrawal()":"c55d1455","claimMyContractsGas()":"77d5d2dc","dead()":"36cf7c87","decimals()":"313ce567","decreaseAllowance(address,uint256)":"a457c2d7","dyorSwapRouter()":"927818af","enableClaimable(address)":"be4d0ae7","getFees()":"db8d55f1","getMarketingReceiver()":"127b7a63","increaseAllowance(address,uint256)":"39509351","isBLACKHATCATWithdrawalPending()":"c0a5788c","isETHWithdrawalPending()":"bb3b3ead","isExcludedFromMaxOwnership(address)":"4fb94550","isExempt(address)":"ad5dff73","isFeeExempt(address)":"3f4218e0","manualSwapTokensForETH()":"b11ac997","minEthBeforeTransfer()":"40257ac8","name()":"06fdde03","owner()":"8da5cb5b","pair()":"a8aa1b31","renounceOwnership()":"715018a6","router()":"f887ea40","routerCA()":"534c0906","sellFee()":"2b14ca56","setAutomatedMarketMakerPair(address,bool)":"9a7a23d6","setExemptStatus(address,bool)":"2161c734","setMarketingReceiver(address)":"75b62532","setRouter(address)":"c0d78655","symbol()":"95d89b41","thrusterRouter()":"988297a6","totalSupply()":"18160ddd","transfer(address,uint256)":"a9059cbb","transferFrom(address,address,uint256)":"23b872dd","transferOwnership(address)":"f2fde38b","withdrawAllToOwner()":"80710f39","withdrawBLACKHATCATToMarketing()":"f5e73620","withdrawETHToMarketing()":"834b39b7"}}}}}