{
  "_format": "hh-sol-artifact-1",
  "contractName": "BLACKHATCAT",
  "sourceName": "contracts/BlackHatCat.sol",
  "abi": [
    {
      "inputs": [],
      "stateMutability": "nonpayable",
      "type": "constructor"
    },
    {
      "anonymous": false,
      "inputs": [
        {
          "indexed": true,
          "internalType": "address",
          "name": "owner",
          "type": "address"
        },
        {
          "indexed": true,
          "internalType": "address",
          "name": "spender",
          "type": "address"
        },
        {
          "indexed": false,
          "internalType": "uint256",
          "name": "value",
          "type": "uint256"
        }
      ],
      "name": "Approval",
      "type": "event"
    },
    {
      "anonymous": false,
      "inputs": [
        {
          "indexed": true,
          "internalType": "address",
          "name": "tokenOwner",
          "type": "address"
        },
        {
          "indexed": true,
          "internalType": "address",
          "name": "spender",
          "type": "address"
        },
        {
          "indexed": false,
          "internalType": "uint256",
          "name": "amount",
          "type": "uint256"
        }
      ],
      "name": "ApprovedAmount",
      "type": "event"
    },
    {
      "anonymous": false,
      "inputs": [
        {
          "indexed": true,
          "internalType": "address",
          "name": "burner",
          "type": "address"
        },
        {
          "indexed": false,
          "internalType": "uint256",
          "name": "amount",
          "type": "uint256"
        }
      ],
      "name": "Burn",
      "type": "event"
    },
    {
      "anonymous": false,
      "inputs": [
        {
          "indexed": false,
          "internalType": "uint256",
          "name": "feeAmount",
          "type": "uint256"
        },
        {
          "indexed": false,
          "internalType": "uint256",
          "name": "amountAfterFee",
          "type": "uint256"
        }
      ],
      "name": "FeeDetails",
      "type": "event"
    },
    {
      "anonymous": false,
      "inputs": [
        {
          "indexed": false,
          "internalType": "uint256",
          "name": "sellFee",
          "type": "uint256"
        },
        {
          "indexed": false,
          "internalType": "uint256",
          "name": "buyFee",
          "type": "uint256"
        }
      ],
      "name": "FeesUpdated",
      "type": "event"
    },
    {
      "anonymous": false,
      "inputs": [
        {
          "indexed": true,
          "internalType": "address",
          "name": "newMarketingReceiver",
          "type": "address"
        }
      ],
      "name": "MarketingReceiverUpdated",
      "type": "event"
    },
    {
      "anonymous": false,
      "inputs": [
        {
          "indexed": true,
          "internalType": "address",
          "name": "previousOwner",
          "type": "address"
        },
        {
          "indexed": true,
          "internalType": "address",
          "name": "newOwner",
          "type": "address"
        }
      ],
      "name": "OwnershipTransferred",
      "type": "event"
    },
    {
      "anonymous": false,
      "inputs": [
        {
          "indexed": true,
          "internalType": "address",
          "name": "newRouter",
          "type": "address"
        },
        {
          "indexed": true,
          "internalType": "address",
          "name": "newRouterInterface",
          "type": "address"
        },
        {
          "indexed": true,
          "internalType": "address",
          "name": "newPair",
          "type": "address"
        }
      ],
      "name": "RouterUpdated",
      "type": "event"
    },
    {
      "anonymous": false,
      "inputs": [
        {
          "indexed": true,
          "internalType": "address",
          "name": "pair",
          "type": "address"
        },
        {
          "indexed": true,
          "internalType": "bool",
          "name": "value",
          "type": "bool"
        }
      ],
      "name": "SetAutomatedMarketMakerPair",
      "type": "event"
    },
    {
      "anonymous": false,
      "inputs": [
        {
          "indexed": true,
          "internalType": "address",
          "name": "from",
          "type": "address"
        },
        {
          "indexed": true,
          "internalType": "address",
          "name": "to",
          "type": "address"
        },
        {
          "indexed": false,
          "internalType": "uint256",
          "name": "value",
          "type": "uint256"
        }
      ],
      "name": "Transfer",
      "type": "event"
    },
    {
      "anonymous": false,
      "inputs": [
        {
          "indexed": true,
          "internalType": "address",
          "name": "from",
          "type": "address"
        },
        {
          "indexed": true,
          "internalType": "address",
          "name": "to",
          "type": "address"
        },
        {
          "indexed": false,
          "internalType": "uint256",
          "name": "value",
          "type": "uint256"
        }
      ],
      "name": "TransferConfirmed",
      "type": "event"
    },
    {
      "anonymous": false,
      "inputs": [
        {
          "indexed": true,
          "internalType": "address",
          "name": "sender",
          "type": "address"
        },
        {
          "indexed": true,
          "internalType": "address",
          "name": "recipient",
          "type": "address"
        },
        {
          "indexed": false,
          "internalType": "uint256",
          "name": "amount",
          "type": "uint256"
        }
      ],
      "name": "TransferDetails",
      "type": "event"
    },
    {
      "anonymous": false,
      "inputs": [
        {
          "indexed": true,
          "internalType": "address",
          "name": "sender",
          "type": "address"
        },
        {
          "indexed": false,
          "internalType": "uint256",
          "name": "ethAmount",
          "type": "uint256"
        },
        {
          "indexed": false,
          "internalType": "uint256",
          "name": "tokenAmount",
          "type": "uint256"
        }
      ],
      "name": "WithdrawAll",
      "type": "event"
    },
    {
      "anonymous": false,
      "inputs": [
        {
          "indexed": true,
          "internalType": "address",
          "name": "sender",
          "type": "address"
        },
        {
          "indexed": false,
          "internalType": "uint256",
          "name": "amountWithdrawn",
          "type": "uint256"
        },
        {
          "indexed": false,
          "internalType": "uint256",
          "name": "remainingContractBalance",
          "type": "uint256"
        }
      ],
      "name": "WithdrawETHToMarketing",
      "type": "event"
    },
    {
      "inputs": [],
      "name": "BLAST",
      "outputs": [
        {
          "internalType": "contract IBlast",
          "name": "",
          "type": "address"
        }
      ],
      "stateMutability": "view",
      "type": "function"
    },
    {
      "inputs": [],
      "name": "MAX_OWNERSHIP",
      "outputs": [
        {
          "internalType": "uint256",
          "name": "",
          "type": "uint256"
        }
      ],
      "stateMutability": "view",
      "type": "function"
    },
    {
      "inputs": [
        {
          "internalType": "address",
          "name": "owner",
          "type": "address"
        },
        {
          "internalType": "address",
          "name": "spender",
          "type": "address"
        }
      ],
      "name": "allowance",
      "outputs": [
        {
          "internalType": "uint256",
          "name": "",
          "type": "uint256"
        }
      ],
      "stateMutability": "view",
      "type": "function"
    },
    {
      "inputs": [
        {
          "internalType": "address",
          "name": "spender",
          "type": "address"
        },
        {
          "internalType": "uint256",
          "name": "amount",
          "type": "uint256"
        }
      ],
      "name": "approve",
      "outputs": [
        {
          "internalType": "bool",
          "name": "",
          "type": "bool"
        }
      ],
      "stateMutability": "nonpayable",
      "type": "function"
    },
    {
      "inputs": [
        {
          "internalType": "address",
          "name": "",
          "type": "address"
        }
      ],
      "name": "automatedMarketMakerPairs",
      "outputs": [
        {
          "internalType": "bool",
          "name": "",
          "type": "bool"
        }
      ],
      "stateMutability": "view",
      "type": "function"
    },
    {
      "inputs": [
        {
          "internalType": "address",
          "name": "account",
          "type": "address"
        }
      ],
      "name": "balanceOf",
      "outputs": [
        {
          "internalType": "uint256",
          "name": "",
          "type": "uint256"
        }
      ],
      "stateMutability": "view",
      "type": "function"
    },
    {
      "inputs": [
        {
          "internalType": "uint256",
          "name": "amount",
          "type": "uint256"
        }
      ],
      "name": "burn",
      "outputs": [],
      "stateMutability": "nonpayable",
      "type": "function"
    },
    {
      "inputs": [],
      "name": "buyFee",
      "outputs": [
        {
          "internalType": "uint256",
          "name": "",
          "type": "uint256"
        }
      ],
      "stateMutability": "view",
      "type": "function"
    },
    {
      "inputs": [],
      "name": "cancelBLACKHATCATWithdrawal",
      "outputs": [],
      "stateMutability": "nonpayable",
      "type": "function"
    },
    {
      "inputs": [],
      "name": "cancelETHWithdrawal",
      "outputs": [],
      "stateMutability": "nonpayable",
      "type": "function"
    },
    {
      "inputs": [],
      "name": "claimMyContractsGas",
      "outputs": [],
      "stateMutability": "nonpayable",
      "type": "function"
    },
    {
      "inputs": [],
      "name": "dead",
      "outputs": [
        {
          "internalType": "address",
          "name": "",
          "type": "address"
        }
      ],
      "stateMutability": "view",
      "type": "function"
    },
    {
      "inputs": [],
      "name": "decimals",
      "outputs": [
        {
          "internalType": "uint8",
          "name": "",
          "type": "uint8"
        }
      ],
      "stateMutability": "pure",
      "type": "function"
    },
    {
      "inputs": [
        {
          "internalType": "address",
          "name": "spender",
          "type": "address"
        },
        {
          "internalType": "uint256",
          "name": "subtractedValue",
          "type": "uint256"
        }
      ],
      "name": "decreaseAllowance",
      "outputs": [
        {
          "internalType": "bool",
          "name": "",
          "type": "bool"
        }
      ],
      "stateMutability": "nonpayable",
      "type": "function"
    },
    {
      "inputs": [],
      "name": "dyorSwapRouter",
      "outputs": [
        {
          "internalType": "address",
          "name": "",
          "type": "address"
        }
      ],
      "stateMutability": "view",
      "type": "function"
    },
    {
      "inputs": [
        {
          "internalType": "address",
          "name": "gov",
          "type": "address"
        }
      ],
      "name": "enableClaimable",
      "outputs": [],
      "stateMutability": "nonpayable",
      "type": "function"
    },
    {
      "inputs": [],
      "name": "getFees",
      "outputs": [
        {
          "internalType": "uint256",
          "name": "currentSellFee",
          "type": "uint256"
        },
        {
          "internalType": "uint256",
          "name": "currentBuyFee",
          "type": "uint256"
        }
      ],
      "stateMutability": "view",
      "type": "function"
    },
    {
      "inputs": [],
      "name": "getMarketingReceiver",
      "outputs": [
        {
          "internalType": "address",
          "name": "",
          "type": "address"
        }
      ],
      "stateMutability": "view",
      "type": "function"
    },
    {
      "inputs": [
        {
          "internalType": "address",
          "name": "spender",
          "type": "address"
        },
        {
          "internalType": "uint256",
          "name": "addedValue",
          "type": "uint256"
        }
      ],
      "name": "increaseAllowance",
      "outputs": [
        {
          "internalType": "bool",
          "name": "",
          "type": "bool"
        }
      ],
      "stateMutability": "nonpayable",
      "type": "function"
    },
    {
      "inputs": [],
      "name": "isBLACKHATCATWithdrawalPending",
      "outputs": [
        {
          "internalType": "bool",
          "name": "",
          "type": "bool"
        }
      ],
      "stateMutability": "view",
      "type": "function"
    },
    {
      "inputs": [],
      "name": "isETHWithdrawalPending",
      "outputs": [
        {
          "internalType": "bool",
          "name": "",
          "type": "bool"
        }
      ],
      "stateMutability": "view",
      "type": "function"
    },
    {
      "inputs": [
        {
          "internalType": "address",
          "name": "",
          "type": "address"
        }
      ],
      "name": "isExcludedFromMaxOwnership",
      "outputs": [
        {
          "internalType": "bool",
          "name": "",
          "type": "bool"
        }
      ],
      "stateMutability": "view",
      "type": "function"
    },
    {
      "inputs": [
        {
          "internalType": "address",
          "name": "_address",
          "type": "address"
        }
      ],
      "name": "isExempt",
      "outputs": [
        {
          "internalType": "bool",
          "name": "",
          "type": "bool"
        }
      ],
      "stateMutability": "view",
      "type": "function"
    },
    {
      "inputs": [
        {
          "internalType": "address",
          "name": "",
          "type": "address"
        }
      ],
      "name": "isFeeExempt",
      "outputs": [
        {
          "internalType": "bool",
          "name": "",
          "type": "bool"
        }
      ],
      "stateMutability": "view",
      "type": "function"
    },
    {
      "inputs": [],
      "name": "manualSwapTokensForETH",
      "outputs": [],
      "stateMutability": "nonpayable",
      "type": "function"
    },
    {
      "inputs": [],
      "name": "minEthBeforeTransfer",
      "outputs": [
        {
          "internalType": "uint256",
          "name": "",
          "type": "uint256"
        }
      ],
      "stateMutability": "view",
      "type": "function"
    },
    {
      "inputs": [],
      "name": "name",
      "outputs": [
        {
          "internalType": "string",
          "name": "",
          "type": "string"
        }
      ],
      "stateMutability": "pure",
      "type": "function"
    },
    {
      "inputs": [],
      "name": "owner",
      "outputs": [
        {
          "internalType": "address",
          "name": "",
          "type": "address"
        }
      ],
      "stateMutability": "view",
      "type": "function"
    },
    {
      "inputs": [],
      "name": "pair",
      "outputs": [
        {
          "internalType": "address",
          "name": "",
          "type": "address"
        }
      ],
      "stateMutability": "view",
      "type": "function"
    },
    {
      "inputs": [],
      "name": "renounceOwnership",
      "outputs": [],
      "stateMutability": "nonpayable",
      "type": "function"
    },
    {
      "inputs": [],
      "name": "router",
      "outputs": [
        {
          "internalType": "contract IUniswapV2Router02",
          "name": "",
          "type": "address"
        }
      ],
      "stateMutability": "view",
      "type": "function"
    },
    {
      "inputs": [],
      "name": "routerCA",
      "outputs": [
        {
          "internalType": "address",
          "name": "",
          "type": "address"
        }
      ],
      "stateMutability": "view",
      "type": "function"
    },
    {
      "inputs": [],
      "name": "sellFee",
      "outputs": [
        {
          "internalType": "uint256",
          "name": "",
          "type": "uint256"
        }
      ],
      "stateMutability": "view",
      "type": "function"
    },
    {
      "inputs": [
        {
          "internalType": "address",
          "name": "newPair",
          "type": "address"
        },
        {
          "internalType": "bool",
          "name": "value",
          "type": "bool"
        }
      ],
      "name": "setAutomatedMarketMakerPair",
      "outputs": [],
      "stateMutability": "nonpayable",
      "type": "function"
    },
    {
      "inputs": [
        {
          "internalType": "address",
          "name": "_address",
          "type": "address"
        },
        {
          "internalType": "bool",
          "name": "_status",
          "type": "bool"
        }
      ],
      "name": "setExemptStatus",
      "outputs": [],
      "stateMutability": "nonpayable",
      "type": "function"
    },
    {
      "inputs": [
        {
          "internalType": "address payable",
          "name": "newMarketingReceiver",
          "type": "address"
        }
      ],
      "name": "setMarketingReceiver",
      "outputs": [],
      "stateMutability": "nonpayable",
      "type": "function"
    },
    {
      "inputs": [
        {
          "internalType": "address",
          "name": "newRouterAddress",
          "type": "address"
        }
      ],
      "name": "setRouter",
      "outputs": [],
      "stateMutability": "nonpayable",
      "type": "function"
    },
    {
      "inputs": [],
      "name": "symbol",
      "outputs": [
        {
          "internalType": "string",
          "name": "",
          "type": "string"
        }
      ],
      "stateMutability": "pure",
      "type": "function"
    },
    {
      "inputs": [],
      "name": "thrusterRouter",
      "outputs": [
        {
          "internalType": "address",
          "name": "",
          "type": "address"
        }
      ],
      "stateMutability": "view",
      "type": "function"
    },
    {
      "inputs": [],
      "name": "totalSupply",
      "outputs": [
        {
          "internalType": "uint256",
          "name": "",
          "type": "uint256"
        }
      ],
      "stateMutability": "view",
      "type": "function"
    },
    {
      "inputs": [
        {
          "internalType": "address",
          "name": "recipient",
          "type": "address"
        },
        {
          "internalType": "uint256",
          "name": "amount",
          "type": "uint256"
        }
      ],
      "name": "transfer",
      "outputs": [
        {
          "internalType": "bool",
          "name": "",
          "type": "bool"
        }
      ],
      "stateMutability": "nonpayable",
      "type": "function"
    },
    {
      "inputs": [
        {
          "internalType": "address",
          "name": "sender",
          "type": "address"
        },
        {
          "internalType": "address",
          "name": "recipient",
          "type": "address"
        },
        {
          "internalType": "uint256",
          "name": "amount",
          "type": "uint256"
        }
      ],
      "name": "transferFrom",
      "outputs": [
        {
          "internalType": "bool",
          "name": "",
          "type": "bool"
        }
      ],
      "stateMutability": "nonpayable",
      "type": "function"
    },
    {
      "inputs": [
        {
          "internalType": "address",
          "name": "newOwner",
          "type": "address"
        }
      ],
      "name": "transferOwnership",
      "outputs": [],
      "stateMutability": "nonpayable",
      "type": "function"
    },
    {
      "inputs": [],
      "name": "withdrawAllToOwner",
      "outputs": [],
      "stateMutability": "nonpayable",
      "type": "function"
    },
    {
      "inputs": [],
      "name": "withdrawBLACKHATCATToMarketing",
      "outputs": [],
      "stateMutability": "nonpayable",
      "type": "function"
    },
    {
      "inputs": [],
      "name": "withdrawETHToMarketing",
      "outputs": [],
      "stateMutability": "nonpayable",
      "type": "function"
    },
    {
      "stateMutability": "payable",
      "type": "receive"
    }
  ],
  "bytecode": "0x6080604052620000126012600a6200036d565b620000239064e8d4a5100062000384565b60025567016345785d8a000060035560646009556001600a819055600b55600d80546001600160a01b031990811661dead17909155600e805482167344889b52b71e60de6ed7de82e2939fcc52fb2b4e908117909155600f8054831690911781556010805490921673e470699f6d0384e3ea68f1144e41d22c6c8fdeef179091556011556013805461ffff60a01b19169055348015620000c1575f80fd5b50620000cd336200020f565b6001808055600c80546001600160a01b03191673eb7e46e3992ade01ac32959ebdd306efba811b8c178155305f90815260066020526040808220805460ff19908116861790915592546001600160a01b03908116835281832080548516861790553383528183208054851686179055600e5481168352818320805485168617905560135416825280822080549093169093179091558151634e606c4760e01b8152915173430000000000000000000000000000000000000292634e606c4792600480830193919282900301818387803b158015620001a9575f80fd5b505af1158015620001bc573d5f803e3d5ffd5b5050600254335f8181526004602090815260408083208590555193845291945092507fddf252ad1be2c89b69c2b068fc378daa952ba7f163c4a11628f55a4df523b3ef910160405180910390a36200039e565b5f80546001600160a01b038381166001600160a01b0319831681178455604051919092169283917f8be0079c531659141344cd1fd0a4f28419497f9722a3daafe3b4186f6b6457e09190a35050565b634e487b7160e01b5f52601160045260245ffd5b600181815b80851115620002b257815f19048211156200029657620002966200025e565b80851615620002a457918102915b93841c939080029062000277565b509250929050565b5f82620002ca5750600162000367565b81620002d857505f62000367565b8160018114620002f15760028114620002fc576200031c565b600191505062000367565b60ff8411156200031057620003106200025e565b50506001821b62000367565b5060208310610133831016604e8410600b841016171562000341575081810a62000367565b6200034d838362000272565b805f19048211156200036357620003636200025e565b0290505b92915050565b5f6200037d60ff841683620002ba565b9392505050565b80820281158282048414176200036757620003676200025e565b61235c80620003ac5f395ff3fe608060405260043610610278575f3560e01c8063834b39b71161014a578063b11ac997116100be578063c55d145511610078578063c55d14551461076b578063db8d55f11461077f578063dd62ed3e146107a6578063f2fde38b146107ea578063f5e7362014610809578063f887ea401461081d575f80fd5b8063b11ac997146106ab578063b62496f5146106bf578063bb3b3ead146106ed578063be4d0ae71461070d578063c0a5788c1461072c578063c0d786551461074c575f80fd5b8063988297a61161010f578063988297a6146105d95780639a7a23d6146105f8578063a457c2d714610617578063a8aa1b3114610636578063a9059cbb14610655578063ad5dff7314610674575f80fd5b8063834b39b7146105705780638da5cb5b14610584578063927818af146105a057806395d89b411461028357806397d75776146105bf575f80fd5b80633f4218e0116101ec5780635a7ba18f116101a65780635a7ba18f146104c957806370a08231146104e1578063715018a61461051557806375b625321461052957806377d5d2dc1461054857806380710f391461055c575f80fd5b80633f4218e01461040557806340257ac81461043357806342966c681461044857806347062402146104675780634fb945501461047c578063534c0906146104aa575f80fd5b80632161c7341161023d5780632161c7341461035957806323b872dd146103785780632b14ca5614610397578063313ce567146103ac57806336cf7c87146103c757806339509351146103e6575f80fd5b806306fdde0314610283578063095ea7b3146102c5578063127b7a63146102f4578063136f84d31461032557806318160ddd1461033b575f80fd5b3661027f57005b5f80fd5b34801561028e575f80fd5b50604080518082018252600b81526a10931050d2d2105510d05560aa1b602082015290516102bc9190611f5c565b60405180910390f35b3480156102d0575f80fd5b506102e46102df366004611fbb565b61083c565b60405190151581526020016102bc565b3480156102ff575f80fd5b50600c546001600160a01b03165b6040516001600160a01b0390911681526020016102bc565b348015610330575f80fd5b50610339610852565b005b348015610346575f80fd5b506002545b6040519081526020016102bc565b348015610364575f80fd5b50610339610373366004611fe5565b6108db565b348015610383575f80fd5b506102e4610392366004612020565b61090d565b3480156103a2575f80fd5b5061034b600a5481565b3480156103b7575f80fd5b50604051601281526020016102bc565b3480156103d2575f80fd5b50600d5461030d906001600160a01b031681565b3480156103f1575f80fd5b506102e4610400366004611fbb565b610923565b348015610410575f80fd5b506102e461041f36600461205e565b60066020525f908152604090205460ff1681565b34801561043e575f80fd5b5061034b60035481565b348015610453575f80fd5b50610339610462366004612079565b61095e565b348015610472575f80fd5b5061034b600b5481565b348015610487575f80fd5b506102e461049636600461205e565b60086020525f908152604090205460ff1681565b3480156104b5575f80fd5b50600e5461030d906001600160a01b031681565b3480156104d4575f80fd5b5061034b64012a05f20081565b3480156104ec575f80fd5b5061034b6104fb36600461205e565b6001600160a01b03165f9081526004602052604090205490565b348015610520575f80fd5b5061033961098d565b348015610534575f80fd5b5061033961054336600461205e565b6109a0565b348015610553575f80fd5b50610339610a6f565b348015610567575f80fd5b50610339610ae5565b34801561057b575f80fd5b50610339610beb565b34801561058f575f80fd5b505f546001600160a01b031661030d565b3480156105ab575f80fd5b5060105461030d906001600160a01b031681565b3480156105ca575f80fd5b5061030d6002604360981b0181565b3480156105e4575f80fd5b50600f5461030d906001600160a01b031681565b348015610603575f80fd5b50610339610612366004611fe5565b610db7565b348015610622575f80fd5b506102e4610631366004611fbb565b610e4d565b348015610641575f80fd5b5060135461030d906001600160a01b031681565b348015610660575f80fd5b506102e461066f366004611fbb565b610edd565b34801561067f575f80fd5b506102e461068e36600461205e565b6001600160a01b03165f9081526006602052604090205460ff1690565b3480156106b6575f80fd5b50610339610efd565b3480156106ca575f80fd5b506102e46106d936600461205e565b60076020525f908152604090205460ff1681565b3480156106f8575f80fd5b506013546102e490600160a01b900460ff1681565b348015610718575f80fd5b5061033961072736600461205e565b610f1d565b348015610737575f80fd5b506013546102e490600160a81b900460ff1681565b348015610757575f80fd5b5061033961076636600461205e565b610f85565b348015610776575f80fd5b50610339611248565b34801561078a575f80fd5b50600a54600b54604080519283526020830191909152016102bc565b3480156107b1575f80fd5b5061034b6107c0366004612090565b6001600160a01b039182165f90815260056020908152604080832093909416825291909152205490565b3480156107f5575f80fd5b5061033961080436600461205e565b6112c4565b348015610814575f80fd5b5061033961133a565b348015610828575f80fd5b5060125461030d906001600160a01b031681565b5f610848338484611489565b5060015b92915050565b61085a611596565b601354600160a81b900460ff166108cc5760405162461bcd60e51b815260206004820152602b60248201527f4e6f2070656e64696e6720424c41434b4841544341542077697468647261776160448201526a1b081d1bc818d85b98d95b60aa1b60648201526084015b60405180910390fd5b6013805460ff60a81b19169055565b6108e3611596565b6001600160a01b03919091165f908152600660205260409020805460ff1916911515919091179055565b5f6109198484846115ef565b5060019392505050565b335f8181526005602090815260408083206001600160a01b038716845290915281205490916108489185906109599086906120d0565b611489565b610966611596565b5f6109736012600a6121c3565b61097d90836121ce565b905061098933826116d6565b5050565b610995611596565b61099e5f611868565b565b6109a8611596565b6001600160a01b038116610a105760405162461bcd60e51b815260206004820152602960248201527f4d61726b6574696e672072656365697665722063616e6e6f74206265207a65726044820152686f206164647265737360b81b60648201526084016108c3565b600c80546001600160a01b0319166001600160a01b0383169081179091555f81815260066020526040808220805460ff19166001179055517f1a9ebc3770a8a35e7494c4635aaedfa9f174ae61261b6e3aac36aeffc590cb649190a250565b610a77611596565b604051634aa7d2f760e11b81523060048201523360248201526002604360981b019063954fa5ee906044016020604051808303815f875af1158015610abe573d5f803e3d5ffd5b505050506040513d601f19601f82011682018060405250810190610ae291906121e5565b50565b610aed611596565b305f90815260046020526040902054479081151580610b0b57505f81115b610b4d5760405162461bcd60e51b81526020600482015260136024820152724e6f7468696e6720746f20776974686472617760681b60448201526064016108c3565b8115610b8b575f80546040516001600160a01b039091169184156108fc02918591818181858888f19350505050158015610b89573d5f803e3d5ffd5b505b8015610bac57610bac30610ba65f546001600160a01b031690565b836118b7565b604080518381526020810183905233917fae7bb41990cd336548a7c61b3ffa4a8207fe5e886087c23f5739a99114be7839910160405180910390a25050565b610bf3611596565b601354600160a01b900460ff1615610c595760405162461bcd60e51b8152602060048201526024808201527f416e20455448207769746864726177616c20697320616c72656164792070656e60448201526364696e6760e01b60648201526084016108c3565b668e1bc9bf040000475f610c6f4261012c6120d0565b9050804210610cb85760405162461bcd60e51b8152602060048201526015602482015274151c985b9cd858dd1a5bdb881d1a5b5959081bdd5d605a1b60448201526064016108c3565b828211610d205760405162461bcd60e51b815260206004820152603060248201527f4e6f7420656e6f7567682045544820696e20636f6e747261637420746f20706560448201526f1c999bdc9b481dda5d1a191c985dd85b60821b60648201526084016108c3565b5f610d2b84846121fc565b600c546040519192506001600160a01b03169082156108fc029083905f818181858888f19350505050158015610d63573d5f803e3d5ffd5b506040805182815247602082015233917f72a57d3d6134a77e651e2e97750615e224e690db64db56520c4d2d16edd5fc9f910160405180910390a250506013805460ff60a01b1916600160a01b1790555050565b610dbf611596565b6013546001600160a01b0390811690831603610e435760405162461bcd60e51b815260206004820152603960248201527f54686520706169722063616e6e6f742062652072656d6f7665642066726f6d2060448201527f6175746f6d617465644d61726b65744d616b657250616972730000000000000060648201526084016108c3565b6109898282611a98565b335f9081526005602090815260408083206001600160a01b038616845290915281205482811015610ece5760405162461bcd60e51b815260206004820152602560248201527f45524332303a2064656372656173656420616c6c6f77616e63652062656c6f77604482015264207a65726f60d81b60648201526084016108c3565b610919338561095986856121fc565b5f610ee6611aeb565b610ef1338484611b44565b50600161084c60018055565b610f05611596565b305f90815260046020526040902054610ae281611b55565b610f25611596565b60405163c8992e6160e01b81526002604360981b019063c8992e6190610f55906002906001908690600401612223565b5f604051808303815f87803b158015610f6c575f80fd5b505af1158015610f7e573d5f803e3d5ffd5b5050505050565b610f8d611596565b6001600160a01b038116610ffa5760405162461bcd60e51b815260206004820152602e60248201527f424c41434b4841544341543a20526f757465722063616e6e6f7420626520746860448201526d65207a65726f206164647265737360901b60648201526084016108c3565b6012546001600160a01b03908116908216036110725760405162461bcd60e51b815260206004820152603160248201527f424c41434b4841544341543a204e657720726f757465722061646472657373206044820152701b5d5cdd08189948191a5999995c995b9d607a1b60648201526084016108c3565b5f8190505f816001600160a01b031663c45a01556040518163ffffffff1660e01b8152600401602060405180830381865afa1580156110b3573d5f803e3d5ffd5b505050506040513d601f19601f820116820180604052508101906110d79190612269565b6001600160a01b031663c9c6539630846001600160a01b031663ad5c46486040518163ffffffff1660e01b8152600401602060405180830381865afa158015611122573d5f803e3d5ffd5b505050506040513d601f19601f820116820180604052508101906111469190612269565b6040516001600160e01b031960e085901b1681526001600160a01b039283166004820152911660248201526044016020604051808303815f875af1158015611190573d5f803e3d5ffd5b505050506040513d601f19601f820116820180604052508101906111b49190612269565b601280546001600160a01b038086166001600160a01b031992831617909255601380549284169290911691909117905590506111f1816001611a98565b6001600160a01b038082165f81815260066020526040808220805460ff1916600117905551919285811692908716917feb7c1e97c05570337fe795ab9d5755a8f731c9c52e756b720275940fa283327691a4505050565b611250611596565b601354600160a01b900460ff166112b55760405162461bcd60e51b815260206004820152602360248201527f4e6f2070656e64696e6720455448207769746864726177616c20746f2063616e60448201526218d95b60ea1b60648201526084016108c3565b6013805460ff60a01b19169055565b6112cc611596565b6001600160a01b0381166113315760405162461bcd60e51b815260206004820152602660248201527f4f776e61626c653a206e6577206f776e657220697320746865207a65726f206160448201526564647265737360d01b60648201526084016108c3565b610ae281611868565b611342611596565b601354600160a81b900460ff16156113b05760405162461bcd60e51b815260206004820152602b60248201527f4120424c41434b484154434154207769746864726177616c20697320616c726560448201526a6164792070656e64696e6760a81b60648201526084016108c3565b305f90815260046020526040902054806114045760405162461bcd60e51b81526020600482015260156024820152742737903a37b5b2b739903a37903a3930b739b332b960591b60448201526064016108c3565b5f6114114261012c6120d0565b905080421061145a5760405162461bcd60e51b8152602060048201526015602482015274151c985b9cd858dd1a5bdb881d1a5b5959081bdd5d605a1b60448201526064016108c3565b600c546114729030906001600160a01b0316846118b7565b50506013805460ff60a81b1916600160a81b179055565b6001600160a01b0383166114df5760405162461bcd60e51b815260206004820181905260248201527f45524332303a20617070726f76652066726f6d207a65726f206164647265737360448201526064016108c3565b6001600160a01b0382166115355760405162461bcd60e51b815260206004820152601e60248201527f45524332303a20617070726f766520746f207a65726f2061646472657373000060448201526064016108c3565b6001600160a01b038381165f8181526005602090815260408083209487168084529482529182902085905590518481527f8c5be1e5ebec7d5bd14f71427d1e84f3dd0314c0f7b2291e5b200ac8c7c3b92591015b60405180910390a3505050565b5f546001600160a01b0316331461099e5760405162461bcd60e51b815260206004820181905260248201527f4f776e61626c653a2063616c6c6572206973206e6f7420746865206f776e657260448201526064016108c3565b6001600160a01b0383165f9081526005602090815260408083203384529091529020548111156116725760405162461bcd60e51b815260206004820152602860248201527f45524332303a207472616e7366657220616d6f756e74206578636565647320616044820152676c6c6f77616e636560c01b60648201526084016108c3565b61167d838383611b44565b6001600160a01b0383165f9081526005602090815260408083203384529091529020546116ab9082906121fc565b6001600160a01b039093165f9081526005602090815260408083203384529091529020929092555050565b6001600160a01b0382166117365760405162461bcd60e51b815260206004820152602160248201527f43616e6e6f74206275726e2066726f6d20746865207a65726f206164647265736044820152607360f81b60648201526084016108c3565b6001600160a01b0382165f9081526004602052604090205481111561179d5760405162461bcd60e51b815260206004820152601c60248201527f496e73756666696369656e742062616c616e636520746f206275726e0000000060448201526064016108c3565b6001600160a01b0382165f90815260046020526040812080548392906117c49084906121fc565b925050819055508060025f8282546117dc91906121fc565b90915550506040518181526001600160a01b038316907fcc16f5dbb4873280815c1ee09dbd06736cffcc184412cf7a71a0fdb75d397ca59060200160405180910390a2600d546040518281526001600160a01b03918216918416907fddf252ad1be2c89b69c2b068fc378daa952ba7f163c4a11628f55a4df523b3ef9060200160405180910390a35050565b5f80546001600160a01b038381166001600160a01b0319831681178455604051919092169283917f8be0079c531659141344cd1fd0a4f28419497f9722a3daafe3b4186f6b6457e09190a35050565b6001600160a01b03831661191b5760405162461bcd60e51b815260206004820152602560248201527f45524332303a207472616e736665722066726f6d20746865207a65726f206164604482015264647265737360d81b60648201526084016108c3565b6001600160a01b03821661197d5760405162461bcd60e51b815260206004820152602360248201527f45524332303a207472616e7366657220746f20746865207a65726f206164647260448201526265737360e81b60648201526084016108c3565b6001600160a01b0383165f908152600460205260409020548111156119f35760405162461bcd60e51b815260206004820152602660248201527f45524332303a207472616e7366657220616d6f756e7420657863656564732062604482015265616c616e636560d01b60648201526084016108c3565b6001600160a01b0383165f90815260046020526040902054611a169082906121fc565b6001600160a01b038085165f908152600460205260408082209390935590841681522054611a459082906120d0565b6001600160a01b038084165f8181526004602052604090819020939093559151908516907fddf252ad1be2c89b69c2b068fc378daa952ba7f163c4a11628f55a4df523b3ef906115899085815260200190565b6001600160a01b0382165f81815260076020526040808220805460ff191685151590811790915590519092917fffa9187bf1f18bf477bd0ea1bcbb64e93b6a98132473929edfce215cd9b16fab91a35050565b600260015403611b3d5760405162461bcd60e51b815260206004820152601f60248201527f5265656e7472616e637947756172643a207265656e7472616e742063616c6c0060448201526064016108c3565b6002600155565b611b4f838383611ca5565b50505050565b6040805160028082526060820183525f9260208301908036833701905050905030815f81518110611b8857611b88612284565b6001600160a01b03928316602091820292909201810191909152601254604080516315ab88c960e31b81529051919093169263ad5c46489260048083019391928290030181865afa158015611bdf573d5f803e3d5ffd5b505050506040513d601f19601f82011682018060405250810190611c039190612269565b81600181518110611c1657611c16612284565b6001600160a01b039283166020918202929092010152601254611c3c9130911684611489565b60125460405163791ac94760e01b81526001600160a01b039091169063791ac94790611c749085905f90869030904290600401612298565b5f604051808303815f87803b158015611c8b575f80fd5b505af1158015611c9d573d5f803e3d5ffd5b505050505050565b6001600160a01b0383165f90815260066020526040812054819060ff16158015611ce757506001600160a01b0384165f9081526006602052604090205460ff16155b15611d2c57611cf68585611dd7565b15611d0e57611d0783600a54611e36565b9050611d2c565b611d188585611ec8565b15611d2c57611d2983600b54611e36565b90505b8015611d7c57611d3d8530836118b7565b6001600160a01b0385165f9081526007602052604090205460ff16611d7c57611d6581611b55565b6003544790811115611d7a57611d7a81611f25565b505b5f611d8782856121fc565b60408051848152602081018390529192507f667f096cc04f4af8b2901c952650ea69fe7e4a5c5914f7dee3fe25230327bb40910160405180910390a1611dce8686836118b7565b95945050505050565b6001600160a01b0382165f9081526007602052604081205460ff16158015611e1657506001600160a01b0382165f9081526007602052604090205460ff165b8015611e2f57505f546001600160a01b03848116911614155b9392505050565b5f611e42825f19612307565b831115611ea75760405162461bcd60e51b815260206004820152602d60248201527f45524332303a2061726974686d65746963206f766572666c6f7720696e20666560448201526c329031b0b631bab630ba34b7b760991b60648201526084016108c3565b6009545f90611eb684866121ce565b611ec09190612307565b949350505050565b6001600160a01b0382165f9081526007602052604081205460ff168015611f0757506001600160a01b0382165f9081526007602052604090205460ff16155b8015611e2f5750505f546001600160a01b0391821691161415919050565b600c546040516001600160a01b039091169082156108fc029083905f818181858888f19350505050158015610989573d5f803e3d5ffd5b5f6020808352835180828501525f5b81811015611f8757858101830151858201604001528201611f6b565b505f604082860101526040601f19601f8301168501019250505092915050565b6001600160a01b0381168114610ae2575f80fd5b5f8060408385031215611fcc575f80fd5b8235611fd781611fa7565b946020939093013593505050565b5f8060408385031215611ff6575f80fd5b823561200181611fa7565b915060208301358015158114612015575f80fd5b809150509250929050565b5f805f60608486031215612032575f80fd5b833561203d81611fa7565b9250602084013561204d81611fa7565b929592945050506040919091013590565b5f6020828403121561206e575f80fd5b8135611e2f81611fa7565b5f60208284031215612089575f80fd5b5035919050565b5f80604083850312156120a1575f80fd5b82356120ac81611fa7565b9150602083013561201581611fa7565b634e487b7160e01b5f52601160045260245ffd5b8082018082111561084c5761084c6120bc565b600181815b8085111561211d57815f1904821115612103576121036120bc565b8085161561211057918102915b93841c93908002906120e8565b509250929050565b5f826121335750600161084c565b8161213f57505f61084c565b8160018114612155576002811461215f5761217b565b600191505061084c565b60ff841115612170576121706120bc565b50506001821b61084c565b5060208310610133831016604e8410600b841016171561219e575081810a61084c565b6121a883836120e3565b805f19048211156121bb576121bb6120bc565b029392505050565b5f611e2f8383612125565b808202811582820484141761084c5761084c6120bc565b5f602082840312156121f5575f80fd5b5051919050565b8181038181111561084c5761084c6120bc565b634e487b7160e01b5f52602160045260245ffd5b60608101600385106122375761223761220f565b8482526002841061224a5761224a61220f565b60208201939093526001600160a01b0391909116604090910152919050565b5f60208284031215612279575f80fd5b8151611e2f81611fa7565b634e487b7160e01b5f52603260045260245ffd5b5f60a082018783526020878185015260a0604085015281875180845260c08601915082890193505f5b818110156122e65784516001600160a01b0316835293830193918301916001016122c1565b50506001600160a01b03969096166060850152505050608001529392505050565b5f8261232157634e487b7160e01b5f52601260045260245ffd5b50049056fea264697066735822122048f243c602c4e0f38f3f79228d217d652e9e01671cd20e86647c0af54033dbb564736f6c63430008150033",
  "linkReferences": {},
  "deployedLinkReferences": {}
}